:0300000002196082
:0C196000787FE4F6D8FD7581780219A7A5
:10000E000000000000000000002F000000000700AC
:10001E00070000147F147F1400242A7F2A12006226
:10002E0064081323003649552250000005030000D2
:10003E0000001C224100000041221C000014083E5A
:10004E0008140008083E0808000000A06000000820
:10005E000808080800006060000000201008040274
:10006E00003E5149453E0000427F40000042615132
:10007E004946002141454B31001814127F100027CC
:10008E0045454539003C4A4949300001710905038F
:10009E0000364949493600064949291E00003636C0
:1000AE000000000056360000000814224100001423
:1000BE001414141400004122140800020151090600
:1000CE0000324959513E007C1211127C007F494981
:1000DE004936003E41414122007F4141221C007FB2
:1000EE0049494941007F09090901003E4149497AC0
:1000FE00007F0808087F0000417F4100002040413A
:10010E003F01007F08142241007F40404040007FA5
:10011E00020C027F007F0408107F003E4141413EE9
:10012E00007F09090906003E4151215E007F091931
:10013E0029460046494949310001017F0101003F2E
:10014E004040403F001F2040201F003F4038403FAE
:10015E000063140814630007087008070061514912
:10016E00454300007F41410000552A552A550000A5
:10017E0041417F0000040201020400404040404023
:10018E00000001020400002054545478007F4844BB
:10019E00443800384444442000384444487F0038F2
:1001AE005454541800087E0901020018A4A4A47C1B
:1001BE00007F080404780000447D400000408084E5
:1001CE007D00007F102844000000417F4000007C2D
:1001DE0004180478007C0804047800384444443839
:1001EE0000FC242424180018242418FC007C080485
:1001FE00040800485454542000043F444020003C5E
:10020E004040207C001C2040201C003C4030403CE4
:10021E00004428102844001CA0A0A07C0044645474
:10022E004C441414141414140000000000000000B8
:10023E000000000000000000000000F800000000B8
:10024E00000000333000000000100C06100C0600F9
:10025E00000000000000000040C07840C078400060
:10026E00043F04043F040400007088FC08300000C2
:10027E00001820FF211E0000F008F000E01800001A
:10028E0000211C031E211E0000F0088870000000D3
:10029E001E2123241927211010160E000000000025
:1002AE000000000000000000000000E01804020042
:1002BE00000000071820400000020418E0000000B3
:1002CE000040201807000000404080F080404000B1
:1002DE000202010F01020200000000F00000000007
:1002EE000101011F010101000000000000000000DB
:1002FE0080B0700000000000000000000000000050
:10030E0000010101010101010000000000000000D8
:10031E000030300000000000000000008060180473
:10032E00006018060100000000E010080810E00050
:10033E00000F102020100F00001010F80000000019
:10034E000020203F20200000007008080888700060
:10035E0000302824222130000030088888483000E0
:10036E000018202020110E000000C02010F8000000
:10037E0000070424243F240000F808888808080099
:10038E000019212020110E0000E0108888180000AE
:10039E00000F112020110E0000380808C838080080
:1003AE000000003F00000000007088080888700000
:1003BE00001C222121221C0000E010080810E00081
:1003CE000000312222110F00000000C0C00000000A
:1003DE00000000303000000000000080000000002F
:1003EE000000806000000000000080402010080027
:1003FE0000010204081020004040404040404000F0
:10040E0004040404040404000008102040800000CA
:10041E000020100804020100007048080808F000CF
:10042E000000003036010000C030C828E810E0009F
:10043E000718272423140B000000C038E00000002A
:10044E00203C23020227382008F888888870000094
:10045E00203F202020110E00C03008080808380068
:10046E00071820202010080008F808080810E000DF
:10047E00203F202020100F0008F88888E808100080
:10048E00203F20202320180008F88888E808100054
:10049E00203F200003000000C0300808083800008C
:1004AE0007182020221E020008F808000008F8088D
:1004BE00203F210101213F20000808F80808000014
:1004CE000020203F2020000000000808F808080047
:1004DE00C08080807F00000008F888C028180800BF
:1004EE00203F20012638200008F8080000000000F8
:1004FE00203F20202020300008F8F800F8F80800EF
:10050E00203F003F003F200008F830C00008F808E8
:10051E00203F200007183F00E01008080810E000F8
:10052E000F10202020100F0008F808080808F0000F
:10053E00203F210101010000E01008080810E00032
:10054E000F18242438504F0008F8888888887000C7
:10055E00203F2000030C3020007088080808380067
:10056E000038202121221C00180808F8080818005D
:10057E000000203F2000000008F808000008F808DE
:10058E00001F202020201F000878880000C838088F
:10059E00000007380E010000F80800F80008F80007
:1005AE00033C0700073C03000818688080681808A1
:1005BE0020302C03032C30200838C800C83808001F
:1005CE000000203F2000000010080808C83808006E
:1005DE002038262120201800000000FE0202020012
:1005EE000000007F40404000000C30C000000000C2
:1005FE00000000010638C00000020202FE000000EA
:10060E00004040407F00000000000402020204008F
:10061E0000000000000000000000000000000000CC
:10062E0080808080808080800002020400000000B4
:10063E0000000000000000000000808080800000AC
:10064E000019242222223F2008F80080800000009A
:10065E00003F112020110E0000000080808000005D
:10066E00000E112020201100000000808088F8006C
:10067E00000E112020103F2000008080808000009E
:10068E00001F222222221300008080F08888881802
:10069E000020203F2020000000008080808080000D
:1006AE00006B94949493600008F8008080800000A2
:1006BE00203F210000203F2000809898000000007D
:1006CE000020203F202000000000008098980000AD
:1006DE0000C08080807F000008F8000080808000CD
:1006EE00203F24022D302000000808F800000000F2
:1006FE000020203F202000008080808080808000AD
:10070E00203F20003F20003F80800080808000003E
:10071E00203F210000203F200000808080800000CC
:10072E00001F202020201F008080008080000000FD
:10073E0080FFA12020110E0000000080808080002C
:10074E00000E112020A0FF8080808000808080001D
:10075E0020203F212000010000008080808080004A
:10076E000033242424241900008080E080800000BF
:10077E000000001F2020000080800000008080000C
:10078E00001F202020103F2080808000008080806D
:10079E0000010E30080601008080008000808080FD
:1007AE000F300C030C300F00008080008080800022
:1007BE000020312E0E31200080808000008080804D
:1007CE0080818E70180601000080808080808000FD
:1007DE000021302C2221300000000000807C02021B
:1007EE0000000000003F404000000000FF0000003D
:1007FE0000000000FF0000000002027C80000000EC
:10080E000040403F00000000000601010202040407
:10081E0000000000000000000000000080C0C0C00A
:10082E00C0C0C080000000000000000000000000FA
:10083E00000000000000000000F0FEFF07010000B5
:10084E000000030FFFFC000000000000000000008D
:10085E000000000000000000001FFFFFC0000000AD
:10086E00000000E0FF7F000000000000000000001C
:10087E000000000000000000000000030307060E49
:10088E000E0607030100000000000000000000003B
:10089E00000000000000000000000000000000C08A
:1008AE00C0C00000000000000000000000000000BA
:1008BE0000000000000000000000001C0C0603FFFA
:1008CE00FFFF00000000000000000000000000001C
:1008DE00000000000000000000000000000000FF0B
:1008EE00FFFF0000000000000000000000000000FC
:1008FE0000000000000000000000000000000007E3
:10090E0007070000000000000000000000000000CB
:10091E00000000000000000000000080C0C0C0C049
:10092E00C0C0C08080000000000000000000000079
:10093E000000000000000000000407070301000093
:10094E000000C1FFFF1E00000000000000000000BC
:10095E00000000000000000000000080C0E07038C1
:10096E001E0F030100000000000000000000000048
:10097E000000000000000000000007070707060641
:10098E000606060606060000000000000000000035
:10099E0000000000000000000000000080C0C0C089
:1009AE00C0C0C080800000000000000000000000F9
:1009BE0000000000000000000000060F0301808010
:1009CE0080C0C17F7F1E00000000000000000000FC
:1009DE0000000000000000000040C0E080000101A7
:1009EE00010303DFFEFC0000000000000000000019
:1009FE000000000000000000000001030707060EC3
:100A0E000E060703030000000000000000000000B7
:100A1E0000000000000000000000000000000000C8
:100A2E000080C0C0000000000000000000000000B8
:100A3E00000000000000000000000000C0E0703C5C
:100A4E001E07FFFF00000000000000000000000075
:100A5E00000000000000000070787E7F73717070DF
:100A6E007070FFFF7070700000000000000000004A
:100A7E000000000000000000000000000000000068
:100A8E00000007070000000000000000000000004A
:100A9E000000000000000000000000C0C0C0C0C088
:100AAE00C0C0C0C0C0000000000000000000000078
:100ABE0000000000000000000080F8FFCF606060C2
:100ACE0060E0C0C0800000000000000000000000D8
:100ADE00000000000000000000C1E18100000000E5
:100AEE00000001E7FFFE0000000000000000000013
:100AFE00000000000000000000010307060E0E0EAD
:100B0E000E070703010000000000000000000000B7
:100B1E0000000000000000000000000000000000C7
:100B2E00C0C0C00000000000000000000000000077
:100B3E000000000000000000000000C0F0F8FECF32
:100B4E00C7C1C0C08000000000000000000000000F
:100B5E000000000000000000007CFFFF8301000089
:100B6E0000000001FFFFFE0000000000000000007A
:100B7E000000000000000000000001030707060E41
:100B8E000E0E06070301000000000000000000002A
:100B9E00000000000000000000C0C0C0C0C0C0C007
:100BAE00C0C0C0C0C0C0C0000000000000000000F7
:100BBE000000000000000000000000000000000027
:100BCE0080E0F83E0F03010000000000000000006E
:100BDE000000000000000000000000000080F0FE99
:100BEE003F070000000000000000000000000000B1
:100BFE0000000000000000000000000004070701D4
:100C0E0000000000000000000000000000000000D6
:100C1E00000000000000000000000080C0C0C0C046
:100C2E00C0C0C080000000000000000000000000F6
:100C3E00000000000000000000007F7FE1C0808007
:100C4E0080C0E17F7F1E0000000000000000000059
:100C5E00000000000000000000FCFECF07030101B1
:100C6E000103038FFEFC00000000000000000000E6
:100C7E0000000000000000000001030707060E0E32
:100C8E000E06070703010000000000000000000030
:100C9E00000000000000000000000080C0C0C0C0C6
:100CAE00C0C0C08000000000000000000000000076
:100CBE00000000000000000000FEFF8701010000A0
:100CCE00000183FFFF7E0000000000000000000016
:100CDE00000000000000000000010307070686E682
:100CEE00FE7F1F0703000000000000000000000050
:100CFE00000000000000000000000000080E0F03BE
:100D0E0001000000000000000000000000000000D4
:100D1E0000000000000000000000000000000000C5
:100D2E0000000000000000000000000000000000B5
:100D3E000000000000000000000000000000E0E0E5
:100D4E00E0000000000000000000000000000000B5
:100D5E000000000000000000000000000000000085
:100D6E000000000000000000000000000000000075
:100D7E000000000000000000000000000000060659
:100D8E00060000000000000000000000000000004F
:100D9E00000000000000000000001010901C1090D9
:100DAE00B09C9488080000000000000000000000C5
:100DBE000000000000000000000021320800001FAB
:100DCE0020244720202030000000000000000000FA
:080DDE0000000000000000000D
:101BCE00F583E5822CF582E43583F583E493FF7D7E
:011BDE000105
:101BDF00ED6004D2938002C293C294E4FEC290EFF0
:101BEF0030E704D2918002C291D290EF25E0FF0E30
:071BFF00BE08EAD294D29364
:011C060022BB
:061C2E00E56604FDAF6550
:101C3400AC07ED24B0FFE4FD121BDFEC54F0C454F8
:101C44000F4410FF121BDFEC540F4401FF021BDF93
:101C0700E4FCEC24B0FFE4FD121BDFE4FF121BDF52
:101C17007F10121BDFE4FB7D01E4FF121BDF0BBB10
:061C270080F50CBC08DC96
:011C2D002294
:041840008F658D66BD
:10184400E4F56BFCEB24E0F56BE565D3947F40078E
:10185400E4F56505660566AB68AA69A96A121610FF
:101864006410704DAD66AF65121C34E4FC75F01065
:10187400E56BA42CF582E435F0F583E5822436F596
:1018840082E5833402121BD80CBC08E1121C2EE43E
:10189400FC75F010E56BA42CF582E435F0F583E5D6
:1018A40082243EF582E5833402121BD80CBC08E185
:1018B40022121C2EE4FC75F006E56BA4240EF582BE
:0B18C400E5F03400121BCE0CBC06EB5C
:0118CF0022F6
:041CAC008F77A90580
:101CB0007F017E00AD0119ED6009AD777C00121641
:031CC0008A80F126
:011CC30022FE
:0818D0008F6C8D6D8A6E8B6F29
:1018D800E4F576F574E574C39570507BC3E57095AF
:1018E8007414FD7F0A121CACAC6EAD6FCFCDCFCE99
:1018F800CCCE12169C7C007D0A12169C8D75E5765E
:10190800702DE57014FFE574C39F5023E575701CB6
:10191800AB71AA72A973121610C3138574F0A425AB
:101928006CFF8B688A69896A7B208021757601AB98
:1019380071AA72A973121610C3138574F0A4256CCA
:10194800FFE5752430FB8571688A69896AAD6D1277
:07195800184005740218DDC0
:01195F002265
:0A1B47008F5C8D5D8B5E8A5F896004
:101B5100E4F564AB5EAA5FA96085648275830012B7
:101B61001629FB602685616885626985636AAD5DBA
:101B7100AF5C1218407408255CF55CD3947840077B
:0B1B8100E4F55C055D055D056480C8AF
:011B8C002236
:041B8D00AA07A905F5
:101B9100E4F578121C34E4FCEB75F040A424A6F5BE
:101BA10082E4340D121BCE05780CBC10EBAF02E9B8
:101BB10004FD121C34E4FCEB75F040A424C6F5824C
:0C1BC100E4340D121BCE05780CBC10EBB8
:011BCD0022F5
:0419EC00AA07A90598
:1019F000E4F55A121C34E4FC75F080EBA42426F5BF
:101A000082E5F03408121BCE055A0CBC10EAAF0276
:101A1000E904FD121C34E4FC75F080EBA42446F5C7
:101A200082E5F03408121BCE055A0CBC10EAAF0256
:101A3000E92402FD121C34E4FC75F080EBA424665A
:101A4000F582E5F03408121BCE055A0CBC10EAAF43
:101A500002E92403FD121C34E4FC75F080EBA4249D
:101A600086F582E5F03408121BCE055A0CBC10EA4C
:011A70002253
:1016F100D2927F647E00121CC4C2927F647E00126B
:101701001CC4D292E4FD7FAE121BDFE4FF121BDF8B
:101711007F10121BDF7F40121BDF7F81121BDF7FD7
:10172100CF121BDF7FA1121BDF7FC8121BDF7FA639
:10173100121BDF7FA8121BDF7F3F121BDF7FD3123B
:101741001BDFE4FF121BDF7FD5121BDF7F80121B23
:10175100DF7FD9121BDF7FF1121BDF7FDA121BDF64
:101761007F12121BDF7FDB121BDF7F40121BDF7F2B
:1017710020121BDF7F02121BDF7F8D121BDF7F1404
:10178100121BDF7FA4121BDF7FA6121BDF7FAF12AC
:101791001BDF7FAF121BDF121C07E4FDFF021C34AD
:101ADD00506C656173652073657420686F75723A1B
:101AED0000506C6561736520736574206D696E754A
:101AFD0074653A00506C656173652073657420736D
:101B0D0065636F6E643A00506C6561736520736533
:101B1D007420796561723A00506C6561736520734C
:101B2D006574206D6F6E74683A00506C65617365F5
:0A1B3D0020736574206461793A009A
:031C750001331028
:071D3C00D2A8D288D2AF2229
:03000300021A716D
:101A7100C0E0C0F0C083C082C0D075D000C000C03B
:101A810001C002C003C004C005C006C007C2A8202F
:101A9100950D7F647E00121CC420950375320120D0
:101AA100960D7F647E00121CC420960375320220BD
:101AB100970D7F647E00121CC4209703753203D2F8
:101AC100A8D007D006D005D004D003D002D001D0D1
:0C1AD10000D0D0D082D083D0F0D0E03222
:1017A100D28C755D00755E00755F4775600075616F
:1017B1000075625275630075640075655675660043
:1017C1007567007568347B007A00794112113CAB72
:1017D100347D017F141219ECAB357D017F2512197F
:1017E100EC7B0A7D017F341219ECAB367D017F441D
:1017F1001219ECAB377D017F551219EC75330CE5ED
:10180100382430FB756800756900756A337D027F85
:1018110066121840E5392430FB756800756900755A
:101821006A337D027F6C1218407561007562007524
:0F18310063337B007A0079477D057F2F021B47C9
:1014D400E4F55AF55B121C077533107561007562EB
:1014E400007563337BFF7A1A79DDE4FD7F08121BF4
:1014F40047E53224FD600D04700D055BE55B700764
:10150400055A8003121CECE55B6401455A702CF506
:10151400617562007563337BFF7A1A79EEFD7F088B
:10152400121B47E53224FD600D0470DB055BE55BAF
:1015340070D5055A80D1121CFF80CCE55B6402454E
:101544005A702CF5617562007563337BFF7A1B79E1
:1015540001FD7F08121B47E53224FD600D0470DB9A
:10156400055BE55B70D5055A80D1121D1280CCE570
:101574005B6403455A702CF5617562007563337BB7
:10158400FF7A1B7914FD7F08121B47E53224FD60A6
:101594000D0470DB055BE55B70D5055A80D1121D27
:1015A4003380CCE55B6404455A702CF561756200A8
:1015B4007563337BFF7A1B7925FD7F08121B47E592
:1015C4003224FD600D0470DB055BE55B70D5055AC4
:1015D40080D1121CD880CCE55B6405455A702CF58B
:1015E400617562007563337BFF7A1B7937FD7F0871
:1015F400121B47E53224FD600D0470DB055BE55BDF
:0B16040070D5055A80D112137180CC04
:01160F0022B8
:101C54001216F1121C07121D25121D3CD2B8C2B96E
:101C6400E53260081470F91214D480F41217A180BC
:011C7400EF80
:101C91007F017E007D707C00ED1D70011CED4C709C
:0A1CA100F7EF1F70011EEF4E70EA0E
:011CAB002216
:101CC400AB07AA06EB1BAE0270011A4E6005121C8C
:041CD4009180F122E8
:071D43000000000000002277
:101C7800021A00000220001E021E000C021C0013A3
:081C88000222000A021807E223
:0E1D2500758901758C4CE4F58AD2AFD2A922E3
:03000B00020DE6FD
:100DE600C0E0C0F0C083C082C0D075D000C000C0D3
:0B0DF60002C003C004C005C006C00717
:100E0100758C4C758A00050FE50F7002050E641490
:100E1100450E6003021033F50EF50F051BE51B703F
:100E210002051A643C451A700CF51AF51B0521E5FB
:100E31002170020520E521643C4520700CF520F568
:100E410021051FE51F7002051EE51F6418451E7070
:100E51000CF51EF51F051DE51D7002051CE5226040
:100E61000302101EE52314B40C00400302101E906F
:100E71000E7E75F003A4C58325F0C58373020EA20F
:100E8100020FC6020EBD020F5F020ED8020F7A02D8
:100E91000EF3020F0E020F95020F29020FAF020F80
:100EA10044E51D6420451C600302101EF51C751DE0
:100EB100010523E5237053052202101EE51D642060
:100EC100451C600302101EF51C751D010523E52359
:100ED1007002052202101EE51D6420451C600302FC
:100EE100101EF51C751D010523E523700205220264
:100EF100101EE51D6420451C600302101EF51C75C3
:100F01001D010523E5237002052202101EE51D6463
:100F110020451C600302101EF51C751D010523E50B
:100F2100237002052202101EE51D6420451C60038A
:100F310002101EF51C751D010523E5237002052213
:100F410002101EE51D6420451C600302101EF51CE5
:100F5100751D010523E5237002052202101EE51D02
:100F6100641F451C600302101EF51C751D0105233D
:100F7100E5237002052202101EE51D641F451C6059
:100F81000302101EF51C751D010523E523700205E2
:100F91002202101EE51D641F451C600302101EF590
:100FA1001C751D010523E52370020522806FE51DD7
:100FB100641F451C7067F51C751D010523E5237031
:100FC1005C05228058E51924D0FBE5183407FAEBBB
:100FD1005403700EFC7D64AF03AE0212169CED4CFF
:100FE100700F7C017D90AF03AE0212169CED4C7028
:100FF10017E51D641E451C7024F51C751D01052394
:10100100E523701905228015E51D641D451C700D31
:10101100F51C751D010523E52370020522E52364F6
:101021000D4522700DF5227523010519E519700290
:101031000518AE1AAF1B7C007D0A12169C8E248FF8
:1010410025AE1AAF1B7C007D0A12169C8C2A8D2BB3
:10105100AE20AF217C007D0A12169C8E308F31AEFE
:1010610020AF217C007D0A12169C8C088D09AE1ED2
:10107100AF1F7C007D0A12169C8E288F29AE1EAFF1
:101081001F7C007D0A12169C8C2E8D2FAE1CAF1D6D
:101091007C007D0A12169C8E268F27AE1CAF1D7C0C
:1010A100007D0A12169C8C2C8D2DAE22AF237C0064
:1010B1007D0A12169C8E0A8F0BAE22AF237C007D17
:1010C1000A12169C8C0C8D0DAE18AF197C037DE8AD
:1010D10012169C8E108F11AE18AF197C037DE81289
:1010E100169CAA04AB057C007D64AF03AE02121608
:1010F1009C8E128F137C007D64AF03AE0212169C8E
:10110100AA04AB057C007D0AAF03AE0212169C8EC9
:10111100148F157C007D0AAF03AE0212169C8C164B
:021121008D1728
:10112300D007D006D005D004D003D002D000D0D051
:09113300D082D083D0F0D0E0326C
:10113C008B5A8A5B895CE5292430121656E52F24DC
:10114C0030AB5AAA5BA95C900001121668900002A1
:10115C00743A121668E5312430900003121668E5D3
:10116C00092430900004121668E5112430AB5DAAF6
:10117C005EA95F121656E5132430AB5DAA5EA95F1B
:10118C00900001121668E5152430900002121668C2
:10119C00E5172430900003121668900004742F1287
:1011AC001668E50B2430900005121668E50D243006
:1011BC00900006121668900007742F121668E52727
:1011CC002430900008121668E52D24309000091286
:1011DC001668AB5AAA5BA95C900001121629FF1283
:1011EC00161075F00AA42F24F0AB60AA61A9621244
:1011FC001656AB5AAA5BA95C90000312162975F01F
:10120C000AA4FF9000041216292F24F0AB60AA61E7
:10121C00A962900001121668E52575F00AA4252B29
:10122C00900002121668AB5DAA5EA95F90000112D5
:10123C00162975F064A4FF12161075F0E8A42FFFA0
:10124C0090000212162975F00AA42FFF90000312C9
:10125C0016292FAB63AA64A965121656AB5DAA5E5C
:10126C00A95F90000512162975F00AA4FF900006DC
:10127C001216292FAB63AA64A96590000112166897
:10128C00AB5DAA5EA95F90000812162975F00AA43E
:10129C00FF9000091216292FAB63AA64A965900070
:1012AC0001121668AB66AA67A968E529121656AB37
:1012BC0066AA67A968900001E52F121668AB66AAAA
:1012CC0067A968900002E531121668AB66AA67A997
:1012DC0068900003E509121668AB66AA67A96890C6
:1012EC000004E525121668AB66AA67A9689000058C
:1012FC00E52B121668AB66AA67A968900006E51183
:10130C00121668AB66AA67A968900007E513121657
:10131C0068AB66AA67A968900008E515121668AB59
:10132C0066AA67A968900009E517121668AB66AA49
:10133C0067A96890000AE50B121668AB66AA67A944
:10134C006890000BE50D121668AB66AA67A9689049
:10135C00000CE527121668AB66AA67A96890000D09
:05136C00E52D021668EA
:101CEC00051FE51F7002051E6418451E7004F51EC5
:031CFC00F51F22AF
:101CFF000521E52170020520643C45207004F52084
:031D0F00F5212299
:101D1200051BE51B7002051A643C451A7004F51A8E
:031D2200F51B228C
:091D33000519E5197002051822DA
:101CD8000523E52370020522640D45227005F522CF
:041CE800752301223D
:10137100E52260030214D3E52314B40C00400302F8
:1013810014D390139175F003A4C58325F0C583731D
:101391000213B50214840213C90214410213DD02BF
:1013A10014540213F10214050214640214190214F4
:1013B1007402142D051DE51D7002051C6420451CD9
:1013C10060030214D30214CE051DE51D7002051C35
:1013D1006420451C60030214D30214CE051DE51DD3
:1013E1007002051C6420451C60030214D30214CE54
:1013F100051DE51D7002051C6420451C60030214D7
:10140100D30214CE051DE51D7002051C6420451C88
:1014110060030214D30214CE051DE51D7002051CE4
:101421006420451C60030214D30214CE051DE51D82
:101431007002051C6420451C60030214D30214CE03
:10144100051DE51D7002051C641F451C6003021487
:10145100D3807A051DE51D7002051C641F451C70B3
:1014610071806A051DE51D7002051C641F451C7015
:1014710061805A051DE51D7002051C641F451C7025
:1014810051804AE51924D0FFE5183407AB07FAEB80
:101491005403700CFC7D64AE0212169CED4C700F6F
:1014A100AE02AF037C017D9012169CED4C701005CD
:1014B1001DE51D7002051C641E451C7015800E057E
:1014C1001DE51D7002051C641D451C7005F51C758C
:0214D1001D01FB
:0114D30022F6
:10196C00021C54E493A3F8E493A34003F68001F221
:10197C0008DFF48029E493A3F85407240CC8C3337C
:10198C00C4540F4420C8834004F456800146F6DF4B
:10199C00E4800B0102040810204080901C75E47E4A
:1019AC00019360BCA3FF543F30E509541FFEE49340
:1019BC00A360010ECF54C025E060A840B8E493A307
:1019CC00FAE493A3F8E493A3C8C582C8CAC583CA32
:1019DC00F0A3C8C582C8CAC583CADFE9DEE780BEEA
:011C90000053
:10161000BB010689828A83E0225002E722BBFE02D8
:09162000E32289828A83E493220B
:10162900BB010CE58229F582E5833AF583E0225076
:1016390006E92582F8E622BBFE06E92582F8E222C0
:0D164900E58229F582E5833AF583E49322DA
:10165600BB010689828A83F0225002F722BBFE0173
:02166600F3226D
:10166800F8BB010DE58229F582E5833AF583E8F0B8
:10167800225006E92582C8F622BBFE05E92582C864
:02168800F2224C
:10168A00EF8DF0A4A8F0CF8CF0A428CE8DF0A42E74
:02169A00FE222E
:10169C00BC000BBE0029EF8DF084FFADF022E4CC32
:1016AC00F875F008EF2FFFEE33FEEC33FCEE9DECFB
:1016BC00984005FCEE9DFE0FD5F0E9E4CEFD22ED41
:1016CC00F8F5F0EE8420D21CFEADF075F008EF2F8B
:1016DC00FFED33FD4007985006D5F0F222C398FD7C
:0516EC000FD5F0EA2219
:00000001FF
