:030000000219944E
:0C199400787FE4F6D8FD75816B0219DB4A
:10000E000000000000000000002F000000000700AC
:10001E00070000147F147F1400242A7F2A12006226
:10002E0064081323003649552250000005030000D2
:10003E0000001C224100000041221C000014083E5A
:10004E0008140008083E0808000000A06000000820
:10005E000808080800006060000000201008040274
:10006E00003E5149453E0000427F40000042615132
:10007E004946002141454B31001814127F100027CC
:10008E0045454539003C4A4949300001710905038F
:10009E0000364949493600064949291E00003636C0
:1000AE000000000056360000000814224100001423
:1000BE001414141400004122140800020151090600
:1000CE0000324959513E007C1211127C007F494981
:1000DE004936003E41414122007F4141221C007FB2
:1000EE0049494941007F09090901003E4149497AC0
:1000FE00007F0808087F0000417F4100002040413A
:10010E003F01007F08142241007F40404040007FA5
:10011E00020C027F007F0408107F003E4141413EE9
:10012E00007F09090906003E4151215E007F091931
:10013E0029460046494949310001017F0101003F2E
:10014E004040403F001F2040201F003F4038403FAE
:10015E000063140814630007087008070061514912
:10016E00454300007F41410000552A552A550000A5
:10017E0041417F0000040201020400404040404023
:10018E00000001020400002054545478007F4844BB
:10019E00443800384444442000384444487F0038F2
:1001AE005454541800087E0901020018A4A4A47C1B
:1001BE00007F080404780000447D400000408084E5
:1001CE007D00007F102844000000417F4000007C2D
:1001DE0004180478007C0804047800384444443839
:1001EE0000FC242424180018242418FC007C080485
:1001FE00040800485454542000043F444020003C5E
:10020E004040207C001C2040201C003C4030403CE4
:10021E00004428102844001CA0A0A07C0044645474
:10022E004C441414141414140000000000000000B8
:10023E000000000000000000000000F800000000B8
:10024E00000000333000000000100C06100C0600F9
:10025E00000000000000000040C07840C078400060
:10026E00043F04043F040400007088FC08300000C2
:10027E00001820FF211E0000F008F000E01800001A
:10028E0000211C031E211E0000F0088870000000D3
:10029E001E2123241927211010160E000000000025
:1002AE000000000000000000000000E01804020042
:1002BE00000000071820400000020418E0000000B3
:1002CE000040201807000000404080F080404000B1
:1002DE000202010F01020200000000F00000000007
:1002EE000101011F010101000000000000000000DB
:1002FE0080B0700000000000000000000000000050
:10030E0000010101010101010000000000000000D8
:10031E000030300000000000000000008060180473
:10032E00006018060100000000E010080810E00050
:10033E00000F102020100F00001010F80000000019
:10034E000020203F20200000007008080888700060
:10035E0000302824222130000030088888483000E0
:10036E000018202020110E000000C02010F8000000
:10037E0000070424243F240000F808888808080099
:10038E000019212020110E0000E0108888180000AE
:10039E00000F112020110E0000380808C838080080
:1003AE000000003F00000000007088080888700000
:1003BE00001C222121221C0000E010080810E00081
:1003CE000000312222110F00000000C0C00000000A
:1003DE00000000303000000000000080000000002F
:1003EE000000806000000000000080402010080027
:1003FE0000010204081020004040404040404000F0
:10040E0004040404040404000008102040800000CA
:10041E000020100804020100007048080808F000CF
:10042E000000003036010000C030C828E810E0009F
:10043E000718272423140B000000C038E00000002A
:10044E00203C23020227382008F888888870000094
:10045E00203F202020110E00C03008080808380068
:10046E00071820202010080008F808080810E000DF
:10047E00203F202020100F0008F88888E808100080
:10048E00203F20202320180008F88888E808100054
:10049E00203F200003000000C0300808083800008C
:1004AE0007182020221E020008F808000008F8088D
:1004BE00203F210101213F20000808F80808000014
:1004CE000020203F2020000000000808F808080047
:1004DE00C08080807F00000008F888C028180800BF
:1004EE00203F20012638200008F8080000000000F8
:1004FE00203F20202020300008F8F800F8F80800EF
:10050E00203F003F003F200008F830C00008F808E8
:10051E00203F200007183F00E01008080810E000F8
:10052E000F10202020100F0008F808080808F0000F
:10053E00203F210101010000E01008080810E00032
:10054E000F18242438504F0008F8888888887000C7
:10055E00203F2000030C3020007088080808380067
:10056E000038202121221C00180808F8080818005D
:10057E000000203F2000000008F808000008F808DE
:10058E00001F202020201F000878880000C838088F
:10059E00000007380E010000F80800F80008F80007
:1005AE00033C0700073C03000818688080681808A1
:1005BE0020302C03032C30200838C800C83808001F
:1005CE000000203F2000000010080808C83808006E
:1005DE002038262120201800000000FE0202020012
:1005EE000000007F40404000000C30C000000000C2
:1005FE00000000010638C00000020202FE000000EA
:10060E00004040407F00000000000402020204008F
:10061E0000000000000000000000000000000000CC
:10062E0080808080808080800002020400000000B4
:10063E0000000000000000000000808080800000AC
:10064E000019242222223F2008F80080800000009A
:10065E00003F112020110E0000000080808000005D
:10066E00000E112020201100000000808088F8006C
:10067E00000E112020103F2000008080808000009E
:10068E00001F222222221300008080F08888881802
:10069E000020203F2020000000008080808080000D
:1006AE00006B94949493600008F8008080800000A2
:1006BE00203F210000203F2000809898000000007D
:1006CE000020203F202000000000008098980000AD
:1006DE0000C08080807F000008F8000080808000CD
:1006EE00203F24022D302000000808F800000000F2
:1006FE000020203F202000008080808080808000AD
:10070E00203F20003F20003F80800080808000003E
:10071E00203F210000203F200000808080800000CC
:10072E00001F202020201F008080008080000000FD
:10073E0080FFA12020110E0000000080808080002C
:10074E00000E112020A0FF8080808000808080001D
:10075E0020203F212000010000008080808080004A
:10076E000033242424241900008080E080800000BF
:10077E000000001F2020000080800000008080000C
:10078E00001F202020103F2080808000008080806D
:10079E0000010E30080601008080008000808080FD
:1007AE000F300C030C300F00008080008080800022
:1007BE000020312E0E31200080808000008080804D
:1007CE0080818E70180601000080808080808000FD
:1007DE000021302C2221300000000000807C02021B
:1007EE0000000000003F404000000000FF0000003D
:1007FE0000000000FF0000000002027C80000000EC
:10080E000040403F00000000000601010202040407
:10081E0000000000000000000000000080C0C0C00A
:10082E00C0C0C080000000000000000000000000FA
:10083E00000000000000000000F0FEFF07010000B5
:10084E000000030FFFFC000000000000000000008D
:10085E000000000000000000001FFFFFC0000000AD
:10086E00000000E0FF7F000000000000000000001C
:10087E000000000000000000000000030307060E49
:10088E000E0607030100000000000000000000003B
:10089E00000000000000000000000000000000C08A
:1008AE00C0C00000000000000000000000000000BA
:1008BE0000000000000000000000001C0C0603FFFA
:1008CE00FFFF00000000000000000000000000001C
:1008DE00000000000000000000000000000000FF0B
:1008EE00FFFF0000000000000000000000000000FC
:1008FE0000000000000000000000000000000007E3
:10090E0007070000000000000000000000000000CB
:10091E00000000000000000000000080C0C0C0C049
:10092E00C0C0C08080000000000000000000000079
:10093E000000000000000000000407070301000093
:10094E000000C1FFFF1E00000000000000000000BC
:10095E00000000000000000000000080C0E07038C1
:10096E001E0F030100000000000000000000000048
:10097E000000000000000000000007070707060641
:10098E000606060606060000000000000000000035
:10099E0000000000000000000000000080C0C0C089
:1009AE00C0C0C080800000000000000000000000F9
:1009BE0000000000000000000000060F0301808010
:1009CE0080C0C17F7F1E00000000000000000000FC
:1009DE0000000000000000000040C0E080000101A7
:1009EE00010303DFFEFC0000000000000000000019
:1009FE000000000000000000000001030707060EC3
:100A0E000E060703030000000000000000000000B7
:100A1E0000000000000000000000000000000000C8
:100A2E000080C0C0000000000000000000000000B8
:100A3E00000000000000000000000000C0E0703C5C
:100A4E001E07FFFF00000000000000000000000075
:100A5E00000000000000000070787E7F73717070DF
:100A6E007070FFFF7070700000000000000000004A
:100A7E000000000000000000000000000000000068
:100A8E00000007070000000000000000000000004A
:100A9E000000000000000000000000C0C0C0C0C088
:100AAE00C0C0C0C0C0000000000000000000000078
:100ABE0000000000000000000080F8FFCF606060C2
:100ACE0060E0C0C0800000000000000000000000D8
:100ADE00000000000000000000C1E18100000000E5
:100AEE00000001E7FFFE0000000000000000000013
:100AFE00000000000000000000010307060E0E0EAD
:100B0E000E070703010000000000000000000000B7
:100B1E0000000000000000000000000000000000C7
:100B2E00C0C0C00000000000000000000000000077
:100B3E000000000000000000000000C0F0F8FECF32
:100B4E00C7C1C0C08000000000000000000000000F
:100B5E000000000000000000007CFFFF8301000089
:100B6E0000000001FFFFFE0000000000000000007A
:100B7E000000000000000000000001030707060E41
:100B8E000E0E06070301000000000000000000002A
:100B9E00000000000000000000C0C0C0C0C0C0C007
:100BAE00C0C0C0C0C0C0C0000000000000000000F7
:100BBE000000000000000000000000000000000027
:100BCE0080E0F83E0F03010000000000000000006E
:100BDE000000000000000000000000000080F0FE99
:100BEE003F070000000000000000000000000000B1
:100BFE0000000000000000000000000004070701D4
:100C0E0000000000000000000000000000000000D6
:100C1E00000000000000000000000080C0C0C0C046
:100C2E00C0C0C080000000000000000000000000F6
:100C3E00000000000000000000007F7FE1C0808007
:100C4E0080C0E17F7F1E0000000000000000000059
:100C5E00000000000000000000FCFECF07030101B1
:100C6E000103038FFEFC00000000000000000000E6
:100C7E0000000000000000000001030707060E0E32
:100C8E000E06070703010000000000000000000030
:100C9E00000000000000000000000080C0C0C0C0C6
:100CAE00C0C0C08000000000000000000000000076
:100CBE00000000000000000000FEFF8701010000A0
:100CCE00000183FFFF7E0000000000000000000016
:100CDE00000000000000000000010307070686E682
:100CEE00FE7F1F0703000000000000000000000050
:100CFE00000000000000000000000000080E0F03BE
:100D0E0001000000000000000000000000000000D4
:100D1E0000000000000000000000000000000000C5
:100D2E0000000000000000000000000000000000B5
:100D3E000000000000000000000000000000E0E0E5
:100D4E00E0000000000000000000000000000000B5
:100D5E000000000000000000000000000000000085
:100D6E000000000000000000000000000000000075
:100D7E000000000000000000000000000000060659
:100D8E00060000000000000000000000000000004F
:100D9E00000000000000000000001010901C1090D9
:100DAE00B09C9488080000000000000000000000C5
:100DBE000000000000000000000021320800001FAB
:100DCE0020244720202030000000000000000000FA
:080DDE0000000000000000000D
:101C0A00F583E5822CF582E43583F583E493FF7D41
:011C1A0001C8
:101C1B00ED6004D2938002C293C294E4FEC290EFB3
:101C2B0030E704D2918002C291D290EF25E0FF0EF3
:071C3B00BE08EAD294D29327
:011C4200227F
:061C6A00E56604FDAF6514
:101C7000AC07ED24B0FFE4FD121C1BEC54F0C4547F
:101C80000F4410FF121C1BEC540F4401FF021C1BDD
:101C4300E4FCEC24B0FFE4FD121C1BE4FF121C1B9C
:101C53007F10121C1BE4FB7D01E4FF121C1B0BBB5A
:061C630080F50CBC08DC5A
:011C69002258
:041874008F658D6689
:10187800E4F56BFCEB24E0F56BE565D3947F40075A
:10188800E4F56505660566AB68AA69A96A12160AD1
:101898006410704DAD66AF65121C70E4FC75F010F5
:1018A800E56BA42CF582E435F0F583E5822436F562
:1018B80082E5833402121C140CBC08E1121C6AE491
:1018C800FC75F010E56BA42CF582E435F0F583E5A2
:1018D80082243EF582E5833402121C140CBC08E114
:1018E80022121C6AE4FC75F006E56BA4240EF5824E
:0B18F800E5F03400121C0A0CBC06EBEB
:0119030022C1
:041CEC008F65A90552
:101CF0007F017E00AD0119ED6009AD657C00121613
:031D00008480F1EB
:011D030022BD
:081904008F5A8D5B8A5C8B5D3C
:10190C00E4F564F562E562C3955E507BC3E55E95D4
:10191C006214FD7F0A121CECAC5CAD5DCFCDCFCE5A
:10192C00CCCE1216967C007D0A1216968D63E56459
:10193C00702DE55E14FFE562C39F5023E563701CB8
:10194C00AB5FAA60A96112160AC3138562F0A425C5
:10195C005AFF8B688A69896A7B208021756401AB88
:10196C005FAA60A96112160AC3138562F0A4255AF6
:10197C00FFE5632430FB855F688A69896AAD5B1279
:07198C001874056202191135
:011993002231
:0A1B83008F5C8D5D8B5E8A5F8960C8
:101B8D00E4F564AB5EAA5FA960856482758300127B
:101B9D001623FB602685616885626985636AAD5D84
:101BAD00AF5C1218747408255CF55CD3947840070B
:0B1BBD00E4F55C055D055D056480C873
:011BC80022FA
:041BC900AA07A905B9
:101BCD00E4F55A121C70E4FCEB75F040A424A6F564
:101BDD0082E4340D121C0A055A0CBC10EBAF02E95D
:101BED0004FD121C70E4FCEB75F040A424C6F582D4
:0C1BFD00E4340D121C0A055A0CBC10EB5D
:011C090022B8
:041A2000AA07A90563
:101A2400E4F55A121C70E4FC75F080EBA42426F54E
:101A340082E5F03408121C0A055A0CBC10EAAF0205
:101A4400E904FD121C70E4FC75F080EBA42446F557
:101A540082E5F03408121C0A055A0CBC10EAAF02E5
:101A6400E92402FD121C70E4FC75F080EBA42466EA
:101A7400F582E5F03408121C0A055A0CBC10EAAFD2
:101A840002E92403FD121C70E4FC75F080EBA4242D
:101A940086F582E5F03408121C0A055A0CBC10EADB
:011AA400221F
:1017C400D2927F647E00121D04C2927F647E001256
:1017D4001D04D292E4FD7FAE121C1BE4FF121C1BFD
:1017E4007F10121C1B7F40121C1B7F81121C1B7F4D
:1017F400CF121C1B7FA1121C1B7FC8121C1B7FA6AF
:10180400121C1B7FA8121C1B7F3F121C1B7FD312B0
:101814001C1BE4FF121C1B7FD5121C1B7F80121C97
:101824001B7FD9121C1B7FF1121C1B7FDA121C1B9D
:101834007F12121C1B7FDB121C1B7F40121C1B7FA0
:1018440020121C1B7F02121C1B7F8D121C1B7F1479
:10185400121C1B7FA4121C1B7FA6121C1B7FAF1221
:101864001C1B7FAF121C1B121C43E4FDFF021C70E7
:101AA5005365756C6500506C65617365207365746D
:101AB50020686F75723A00506C65617365207365B7
:101AC50074206D696E7574653A00506C6561736557
:101AD50020736574207365636F6E643A00506C659E
:101AE5006173652073657420796561723A00506C85
:101AF5006561736520736574206D6F6E74683A0057
:101B0500506C6561736520736574206461793A0072
:031CB500013310E8
:071D7C00D2A8D288D2AF22E9
:1016EB00D28C755D00755E00755F47756000756126
:1016FB0000756252756300756400756556756600FA
:10170B007567007568347B007A00794112113CAB28
:10171B00347D017F14121A20AB357D017F25121AFF
:10172B00207B0A7D017F34121A20AB367D017F446A
:10173B00121A20AB377D017F55121A2075330CE539
:10174B00382430FB756800756900756A337D027F3C
:10175B0066121874E5392430FB75680075690075DD
:10176B006A337D027F6C12187475610075620075A7
:10177B0063337B007A0079477D057F2F121B83E54E
:10178B0054FB7A00755E03755F00756000756133FD
:10179B007D06E4FF12190475331075610075620044
:1017AB007563337BFF7A1A79A57D05E4FF121B83E2
:0917BB00E4FB7D067F30021BC92E
:1014D400E4F55AF55B121C437533107561007562AF
:1014E400007563337BFF7A1A79ABE4FDFF121B832B
:1014F400E53224FD600D04700D055BE55B700705A6
:101504005A8003121D2CE55B6401455A702BF5616A
:101514007562007563337BFF7A1A79BCFDFF121B79
:1015240083E53224FD600D0470DC055BE55B70D659
:10153400055A80D2121D3F80CDE55B6402455A7086
:101544002BF5617562007563337BFF7A1A79CFFDE1
:10155400FF121B83E53224FD600D0470DC055BE59E
:101564005B70D6055A80D2121D5280CDE55B6403B0
:10157400455A702BF5617562007563337BFF7A1AE7
:1015840079E2FDFF121B83E53224FD600D0470DC5B
:10159400055BE55B70D6055A80D2121D7380CDE5DC
:1015A4005B6404455A702BF5617562007563337B87
:1015B400FF7A1A79F3FDFF121B83E53224FD600DD7
:1015C4000470DC055BE55B70D6055A80D2121D18E9
:1015D40080CDE55B6405455A702BF5617562007535
:1015E40063337BFF7A1B7905FDFF121B83E53224ED
:1015F400FD600D0470DC055BE55B70D6055A80D296
:0516040012137180CDFE
:0116090022BE
:03000300021B15C8
:101B1500C0E0C0F0C083C082C0D075D000C000C096
:101B250001C002C003C004C005C006C007C2A8208A
:101B3500950D7F0A7E00121D042095037532012044
:101B4500960D7F0A7E00121D042096037532022031
:101B5500970D7F0A7E00121D04209703753203D26C
:101B6500B2D2A8D007D006D005D004D003D002D079
:0E1B750001D000D0D0D082D083D0F0D0E032AA
:101C90001217C4121C43121D65121D7CD2B8C2B9A2
:101CA000E532600CE53260F8B401F91214D480F02A
:051CB0001216EB80EBB1
:101CD1007F017E007D707C00ED1D70011CED4C705C
:0A1CE100F7EF1F70011EEF4E70EACE
:011CEB0022D6
:101D0400AB07AA06EB1BAE0270011A4E6005121C4B
:041D1400D180F12267
:101CB800021A00000220001E021E000C021C001363
:081CC8000222000A021807E2E3
:0E1D6500758901758C4CE4F58AD2AFD2A922A3
:03000B00020DE6FD
:100DE600C0E0C0F0C083C082C0D075D000C000C0D3
:0B0DF60002C003C004C005C006C00717
:100E0100758C4C758A00050FE50F7002050E641490
:100E1100450E6003021033F50EF50F051BE51B703F
:100E210002051A643C451A700CF51AF51B0521E5FB
:100E31002170020520E521643C4520700CF520F568
:100E410021051FE51F7002051EE51F6418451E7070
:100E51000CF51EF51F051DE51D7002051CE5226040
:100E61000302101EE52314B40C00400302101E906F
:100E71000E7E75F003A4C58325F0C58373020EA20F
:100E8100020FC6020EBD020F5F020ED8020F7A02D8
:100E91000EF3020F0E020F95020F29020FAF020F80
:100EA10044E51D6420451C600302101EF51C751DE0
:100EB100010523E5237053052202101EE51D642060
:100EC100451C600302101EF51C751D010523E52359
:100ED1007002052202101EE51D6420451C600302FC
:100EE100101EF51C751D010523E523700205220264
:100EF100101EE51D6420451C600302101EF51C75C3
:100F01001D010523E5237002052202101EE51D6463
:100F110020451C600302101EF51C751D010523E50B
:100F2100237002052202101EE51D6420451C60038A
:100F310002101EF51C751D010523E5237002052213
:100F410002101EE51D6420451C600302101EF51CE5
:100F5100751D010523E5237002052202101EE51D02
:100F6100641F451C600302101EF51C751D0105233D
:100F7100E5237002052202101EE51D641F451C6059
:100F81000302101EF51C751D010523E523700205E2
:100F91002202101EE51D641F451C600302101EF590
:100FA1001C751D010523E52370020522806FE51DD7
:100FB100641F451C7067F51C751D010523E5237031
:100FC1005C05228058E51924D0FBE5183407FAEBBB
:100FD1005403700EFC7D64AF03AE02121696ED4C05
:100FE100700F7C017D90AF03AE02121696ED4C702E
:100FF10017E51D641E451C7024F51C751D01052394
:10100100E523701905228015E51D641D451C700D31
:10101100F51C751D010523E52370020522E52364F6
:101021000D4522700DF5227523010519E519700290
:101031000518AE1AAF1B7C007D0A1216968E248FFE
:1010410025AE1AAF1B7C007D0A1216968C2A8D2BB9
:10105100AE20AF217C007D0A1216968E308F31AE04
:1010610020AF217C007D0A1216968C088D09AE1ED8
:10107100AF1F7C007D0A1216968E288F29AE1EAFF7
:101081001F7C007D0A1216968C2E8D2FAE1CAF1D73
:101091007C007D0A1216968E268F27AE1CAF1D7C12
:1010A100007D0A1216968C2C8D2DAE22AF237C006A
:1010B1007D0A1216968E0A8F0BAE22AF237C007D1D
:1010C1000A1216968C0C8D0DAE18AF197C037DE8B3
:1010D1001216968E108F11AE18AF197C037DE8128F
:1010E1001696AA04AB057C007D64AF03AE0212160E
:1010F100968E128F137C007D64AF03AE021216969A
:10110100AA04AB057C007D0AAF03AE021216968ECF
:10111100148F157C007D0AAF03AE021216968C1651
:021121008D1728
:10112300D007D006D005D004D003D002D000D0D051
:09113300D082D083D0F0D0E0326C
:10113C008B5A8A5B895CE5292430121650E52F24E2
:10114C0030AB5AAA5BA95C900001121662900002A7
:10115C00743A121662E5312430900003121662E5DF
:10116C00092430900004121662E5112430AB5DAAFC
:10117C005EA95F121650E5132430AB5DAA5EA95F21
:10118C00900001121662E5152430900002121662CE
:10119C00E5172430900003121662900004742F128D
:1011AC001662E50B2430900005121662E50D243012
:1011BC00900006121662900007742F121662E52733
:1011CC002430900008121662E52D2430900009128C
:1011DC001662AB5AAA5BA95C900001121623FF128F
:1011EC00160A75F00AA42F24F0AB60AA61A962124A
:1011FC001650AB5AAA5BA95C90000312162375F02B
:10120C000AA4FF9000041216232F24F0AB60AA61ED
:10121C00A962900001121662E52575F00AA4252B2F
:10122C00900002121662AB5DAA5EA95F90000112DB
:10123C00162375F064A4FF12160A75F0E8A42FFFAC
:10124C0090000212162375F00AA42FFF90000312CF
:10125C0016232FAB63AA64A965121650AB5DAA5E68
:10126C00A95F90000512162375F00AA4FF900006E2
:10127C001216232FAB63AA64A965900001121662A3
:10128C00AB5DAA5EA95F90000812162375F00AA444
:10129C00FF9000091216232FAB63AA64A965900076
:1012AC0001121662AB66AA67A968E529121650AB43
:1012BC0066AA67A968900001E52F121662AB66AAB0
:1012CC0067A968900002E531121662AB66AA67A99D
:1012DC0068900003E509121662AB66AA67A96890CC
:1012EC000004E525121662AB66AA67A96890000592
:1012FC00E52B121662AB66AA67A968900006E51189
:10130C00121662AB66AA67A968900007E51312165D
:10131C0062AB66AA67A968900008E515121662AB65
:10132C0066AA67A968900009E517121662AB66AA4F
:10133C0067A96890000AE50B121662AB66AA67A94A
:10134C006890000BE50D121662AB66AA67A968904F
:10135C00000CE527121662AB66AA67A96890000D0F
:05136C00E52D021662F0
:101D2C00051FE51F7002051E6418451E7004F51E84
:031D3C00F51F226E
:101D3F000521E52170020520643C45207004F52043
:031D4F00F5212259
:101D5200051BE51B7002051A643C451A7004F51A4E
:031D6200F51B224C
:091D73000519E51970020518229A
:101D18000523E52370020522640D45227005F5228E
:041D280075230122FC
:10137100E52260030214D3E52314B40C00400302F8
:1013810014D390139175F003A4C58325F0C583731D
:101391000213B50214840213C90214410213DD02BF
:1013A10014540213F10214050214640214190214F4
:1013B1007402142D051DE51D7002051C6420451CD9
:1013C10060030214D30214CE051DE51D7002051C35
:1013D1006420451C60030214D30214CE051DE51DD3
:1013E1007002051C6420451C60030214D30214CE54
:1013F100051DE51D7002051C6420451C60030214D7
:10140100D30214CE051DE51D7002051C6420451C88
:1014110060030214D30214CE051DE51D7002051CE4
:101421006420451C60030214D30214CE051DE51D82
:101431007002051C6420451C60030214D30214CE03
:10144100051DE51D7002051C641F451C6003021487
:10145100D3807A051DE51D7002051C641F451C70B3
:1014610071806A051DE51D7002051C641F451C7015
:1014710061805A051DE51D7002051C641F451C7025
:1014810051804AE51924D0FFE5183407AB07FAEB80
:101491005403700CFC7D64AE02121696ED4C700F75
:1014A100AE02AF037C017D90121696ED4C701005D3
:1014B1001DE51D7002051C641E451C7015800E057E
:1014C1001DE51D7002051C641D451C7005F51C758C
:0214D1001D01FB
:0114D30022F6
:1019A000021C90E493A3F8E493A34003F68001F2B1
:1019B00008DFF48029E493A3F85407240CC8C33348
:1019C000C4540F4420C8834004F456800146F6DF17
:1019D000E4800B0102040810204080901CB5E47ED6
:1019E000019360BCA3FF543F30E509541FFEE4930C
:1019F000A360010ECF54C025E060A840B8E493A3D3
:101A0000FAE493A3F8E493A3C8C582C8CAC583CAFD
:101A1000F0A3C8C582C8CAC583CADFE9DEE780BEB5
:011CD0000013
:10160A00BB010689828A83E0225002E722BBFE02DE
:09161A00E32289828A83E4932211
:10162300BB010CE58229F582E5833AF583E022507C
:1016330006E92582F8E622BBFE06E92582F8E222C6
:0D164300E58229F582E5833AF583E49322E0
:10165000BB010689828A83F0225002F722BBFE0179
:02166000F32273
:10166200F8BB010DE58229F582E5833AF583E8F0BE
:10167200225006E92582C8F622BBFE05E92582C86A
:02168200F22252
:10168400EF8DF0A4A8F0CF8CF0A428CE8DF0A42E7A
:02169400FE2234
:10169600BC000BBE0029EF8DF084FFADF022E4CC38
:1016A600F875F008EF2FFFEE33FEEC33FCEE9DEC01
:1016B600984005FCEE9DFE0FD5F0E9E4CEFD22ED47
:1016C600F8F5F0EE8420D21CFEADF075F008EF2F91
:1016D600FFED33FD4007985006D5F0F222C398FD82
:0516E6000FD5F0EA221F
:00000001FF
