:0300000002192DB5
:0C192D00787FE4F6D8FD7581770219740C
:10000E000000000000000000002F000000000700AC
:10001E00070000147F147F1400242A7F2A12006226
:10002E0064081323003649552250000005030000D2
:10003E0000001C224100000041221C000014083E5A
:10004E0008140008083E0808000000A06000000820
:10005E000808080800006060000000201008040274
:10006E00003E5149453E0000427F40000042615132
:10007E004946002141454B31001814127F100027CC
:10008E0045454539003C4A4949300001710905038F
:10009E0000364949493600064949291E00003636C0
:1000AE000000000056360000000814224100001423
:1000BE001414141400004122140800020151090600
:1000CE0000324959513E007C1211127C007F494981
:1000DE004936003E41414122007F4141221C007FB2
:1000EE0049494941007F09090901003E4149497AC0
:1000FE00007F0808087F0000417F4100002040413A
:10010E003F01007F08142241007F40404040007FA5
:10011E00020C027F007F0408107F003E4141413EE9
:10012E00007F09090906003E4151215E007F091931
:10013E0029460046494949310001017F0101003F2E
:10014E004040403F001F2040201F003F4038403FAE
:10015E000063140814630007087008070061514912
:10016E00454300007F41410000552A552A550000A5
:10017E0041417F0000040201020400404040404023
:10018E00000001020400002054545478007F4844BB
:10019E00443800384444442000384444487F0038F2
:1001AE005454541800087E0901020018A4A4A47C1B
:1001BE00007F080404780000447D400000408084E5
:1001CE007D00007F102844000000417F4000007C2D
:1001DE0004180478007C0804047800384444443839
:1001EE0000FC242424180018242418FC007C080485
:1001FE00040800485454542000043F444020003C5E
:10020E004040207C001C2040201C003C4030403CE4
:10021E00004428102844001CA0A0A07C0044645474
:10022E004C441414141414140000000000000000B8
:10023E000000000000000000000000F800000000B8
:10024E00000000333000000000100C06100C0600F9
:10025E00000000000000000040C07840C078400060
:10026E00043F04043F040400007088FC08300000C2
:10027E00001820FF211E0000F008F000E01800001A
:10028E0000211C031E211E0000F0088870000000D3
:10029E001E2123241927211010160E000000000025
:1002AE000000000000000000000000E01804020042
:1002BE00000000071820400000020418E0000000B3
:1002CE000040201807000000404080F080404000B1
:1002DE000202010F01020200000000F00000000007
:1002EE000101011F010101000000000000000000DB
:1002FE0080B0700000000000000000000000000050
:10030E0000010101010101010000000000000000D8
:10031E000030300000000000000000008060180473
:10032E00006018060100000000E010080810E00050
:10033E00000F102020100F00001010F80000000019
:10034E000020203F20200000007008080888700060
:10035E0000302824222130000030088888483000E0
:10036E000018202020110E000000C02010F8000000
:10037E0000070424243F240000F808888808080099
:10038E000019212020110E0000E0108888180000AE
:10039E00000F112020110E0000380808C838080080
:1003AE000000003F00000000007088080888700000
:1003BE00001C222121221C0000E010080810E00081
:1003CE000000312222110F00000000C0C00000000A
:1003DE00000000303000000000000080000000002F
:1003EE000000806000000000000080402010080027
:1003FE0000010204081020004040404040404000F0
:10040E0004040404040404000008102040800000CA
:10041E000020100804020100007048080808F000CF
:10042E000000003036010000C030C828E810E0009F
:10043E000718272423140B000000C038E00000002A
:10044E00203C23020227382008F888888870000094
:10045E00203F202020110E00C03008080808380068
:10046E00071820202010080008F808080810E000DF
:10047E00203F202020100F0008F88888E808100080
:10048E00203F20202320180008F88888E808100054
:10049E00203F200003000000C0300808083800008C
:1004AE0007182020221E020008F808000008F8088D
:1004BE00203F210101213F20000808F80808000014
:1004CE000020203F2020000000000808F808080047
:1004DE00C08080807F00000008F888C028180800BF
:1004EE00203F20012638200008F8080000000000F8
:1004FE00203F20202020300008F8F800F8F80800EF
:10050E00203F003F003F200008F830C00008F808E8
:10051E00203F200007183F00E01008080810E000F8
:10052E000F10202020100F0008F808080808F0000F
:10053E00203F210101010000E01008080810E00032
:10054E000F18242438504F0008F8888888887000C7
:10055E00203F2000030C3020007088080808380067
:10056E000038202121221C00180808F8080818005D
:10057E000000203F2000000008F808000008F808DE
:10058E00001F202020201F000878880000C838088F
:10059E00000007380E010000F80800F80008F80007
:1005AE00033C0700073C03000818688080681808A1
:1005BE0020302C03032C30200838C800C83808001F
:1005CE000000203F2000000010080808C83808006E
:1005DE002038262120201800000000FE0202020012
:1005EE000000007F40404000000C30C000000000C2
:1005FE00000000010638C00000020202FE000000EA
:10060E00004040407F00000000000402020204008F
:10061E0000000000000000000000000000000000CC
:10062E0080808080808080800002020400000000B4
:10063E0000000000000000000000808080800000AC
:10064E000019242222223F2008F80080800000009A
:10065E00003F112020110E0000000080808000005D
:10066E00000E112020201100000000808088F8006C
:10067E00000E112020103F2000008080808000009E
:10068E00001F222222221300008080F08888881802
:10069E000020203F2020000000008080808080000D
:1006AE00006B94949493600008F8008080800000A2
:1006BE00203F210000203F2000809898000000007D
:1006CE000020203F202000000000008098980000AD
:1006DE0000C08080807F000008F8000080808000CD
:1006EE00203F24022D302000000808F800000000F2
:1006FE000020203F202000008080808080808000AD
:10070E00203F20003F20003F80800080808000003E
:10071E00203F210000203F200000808080800000CC
:10072E00001F202020201F008080008080000000FD
:10073E0080FFA12020110E0000000080808080002C
:10074E00000E112020A0FF8080808000808080001D
:10075E0020203F212000010000008080808080004A
:10076E000033242424241900008080E080800000BF
:10077E000000001F2020000080800000008080000C
:10078E00001F202020103F2080808000008080806D
:10079E0000010E30080601008080008000808080FD
:1007AE000F300C030C300F00008080008080800022
:1007BE000020312E0E31200080808000008080804D
:1007CE0080818E70180601000080808080808000FD
:1007DE000021302C2221300000000000807C02021B
:1007EE0000000000003F404000000000FF0000003D
:1007FE0000000000FF0000000002027C80000000EC
:10080E000040403F00000000000601010202040407
:10081E0000000000000000000000000080C0C0C00A
:10082E00C0C0C080000000000000000000000000FA
:10083E00000000000000000000F0FEFF07010000B5
:10084E000000030FFFFC000000000000000000008D
:10085E000000000000000000001FFFFFC0000000AD
:10086E00000000E0FF7F000000000000000000001C
:10087E000000000000000000000000030307060E49
:10088E000E0607030100000000000000000000003B
:10089E00000000000000000000000000000000C08A
:1008AE00C0C00000000000000000000000000000BA
:1008BE0000000000000000000000001C0C0603FFFA
:1008CE00FFFF00000000000000000000000000001C
:1008DE00000000000000000000000000000000FF0B
:1008EE00FFFF0000000000000000000000000000FC
:1008FE0000000000000000000000000000000007E3
:10090E0007070000000000000000000000000000CB
:10091E00000000000000000000000080C0C0C0C049
:10092E00C0C0C08080000000000000000000000079
:10093E000000000000000000000407070301000093
:10094E000000C1FFFF1E00000000000000000000BC
:10095E00000000000000000000000080C0E07038C1
:10096E001E0F030100000000000000000000000048
:10097E000000000000000000000007070707060641
:10098E000606060606060000000000000000000035
:10099E0000000000000000000000000080C0C0C089
:1009AE00C0C0C080800000000000000000000000F9
:1009BE0000000000000000000000060F0301808010
:1009CE0080C0C17F7F1E00000000000000000000FC
:1009DE0000000000000000000040C0E080000101A7
:1009EE00010303DFFEFC0000000000000000000019
:1009FE000000000000000000000001030707060EC3
:100A0E000E060703030000000000000000000000B7
:100A1E0000000000000000000000000000000000C8
:100A2E000080C0C0000000000000000000000000B8
:100A3E00000000000000000000000000C0E0703C5C
:100A4E001E07FFFF00000000000000000000000075
:100A5E00000000000000000070787E7F73717070DF
:100A6E007070FFFF7070700000000000000000004A
:100A7E000000000000000000000000000000000068
:100A8E00000007070000000000000000000000004A
:100A9E000000000000000000000000C0C0C0C0C088
:100AAE00C0C0C0C0C0000000000000000000000078
:100ABE0000000000000000000080F8FFCF606060C2
:100ACE0060E0C0C0800000000000000000000000D8
:100ADE00000000000000000000C1E18100000000E5
:100AEE00000001E7FFFE0000000000000000000013
:100AFE00000000000000000000010307060E0E0EAD
:100B0E000E070703010000000000000000000000B7
:100B1E0000000000000000000000000000000000C7
:100B2E00C0C0C00000000000000000000000000077
:100B3E000000000000000000000000C0F0F8FECF32
:100B4E00C7C1C0C08000000000000000000000000F
:100B5E000000000000000000007CFFFF8301000089
:100B6E0000000001FFFFFE0000000000000000007A
:100B7E000000000000000000000001030707060E41
:100B8E000E0E06070301000000000000000000002A
:100B9E00000000000000000000C0C0C0C0C0C0C007
:100BAE00C0C0C0C0C0C0C0000000000000000000F7
:100BBE000000000000000000000000000000000027
:100BCE0080E0F83E0F03010000000000000000006E
:100BDE000000000000000000000000000080F0FE99
:100BEE003F070000000000000000000000000000B1
:100BFE0000000000000000000000000004070701D4
:100C0E0000000000000000000000000000000000D6
:100C1E00000000000000000000000080C0C0C0C046
:100C2E00C0C0C080000000000000000000000000F6
:100C3E00000000000000000000007F7FE1C0808007
:100C4E0080C0E17F7F1E0000000000000000000059
:100C5E00000000000000000000FCFECF07030101B1
:100C6E000103038FFEFC00000000000000000000E6
:100C7E0000000000000000000001030707060E0E32
:100C8E000E06070703010000000000000000000030
:100C9E00000000000000000000000080C0C0C0C0C6
:100CAE00C0C0C08000000000000000000000000076
:100CBE00000000000000000000FEFF8701010000A0
:100CCE00000183FFFF7E0000000000000000000016
:100CDE00000000000000000000010307070686E682
:100CEE00FE7F1F0703000000000000000000000050
:100CFE00000000000000000000000000080E0F03BE
:100D0E0001000000000000000000000000000000D4
:100D1E0000000000000000000000000000000000C5
:100D2E0000000000000000000000000000000000B5
:100D3E000000000000000000000000000000E0E0E5
:100D4E00E0000000000000000000000000000000B5
:100D5E000000000000000000000000000000000085
:100D6E000000000000000000000000000000000075
:100D7E000000000000000000000000000000060659
:100D8E00060000000000000000000000000000004F
:100D9E00000000000000000000001010901C1090D9
:100DAE00B09C9488080000000000000000000000C5
:100DBE000000000000000000000021320800001FAB
:100DCE0020244720202030000000000000000000FA
:080DDE0000000000000000000D
:101B9700F583E5822CF582E43583F583E493FF7DB5
:011BA700013C
:101BA800ED6004D2938002C293C294E4FEC290EF27
:101BB80030E704D2918002C291D290EF25E0FF0E67
:071BC800BE08EAD294D2939B
:011BCF0022F3
:061BF700E56504FDAF648A
:101BFD00AC07ED24B0FFE4FD121BA8EC54F0C45467
:101C0D000F4410FF121BA8EC540F4401FF021BA838
:101BD000E4FCEC24B0FFE4FD121BA8E4FF121BA8F8
:101BE0007F10121BA8E4FB7D01E4FF121BA80BBBB6
:061BF00080F50CBC08DCCE
:011BF60022CC
:04180D008F648D65F2
:10181100E4F56AFCEB24E0F56AE564D3947F4007C4
:10182100E4F56405650565AB67AA68A9691215DD6C
:101831006410704DAD65AF64121BFDE4FC75F010D2
:10184100E56AA42CF582E435F0F583E5822436F5CA
:1018510082E5833402121BA10CBC08E1121BF7E4E0
:10186100FC75F010E56AA42CF582E435F0F583E50A
:1018710082243EF582E5833402121BA10CBC08E1EF
:1018810022121BF7E4FC75F006E56AA4240EF5822A
:0B189100E5F03400121B970CBC06EBC6
:01189C002229
:041C54008F76A905D9
:101C58007F017E00AD0119ED6009AD767C0012169A
:031C68005780F1B1
:011C6B002256
:08189D008F6B8D6C8A6D8B6E60
:1018A500E4F575F573E573C3956F507BC3E56F95E7
:1018B5007314FD7F0A121C54AC6DAD6ECFCDCFCE27
:1018C500CCCE1216697C007D0A1216698D74E575F9
:1018D500702DE56F14FFE573C39F5023E574701CED
:1018E500AB70AA71A9721215DDC3138573F0A42517
:1018F5006BFF8B678A6889697B208021757501ABD1
:1019050070AA71A9721215DDC3138573F0A4256B36
:10191500FFE5742430FB8570678A688969AD6C12B0
:07192500180D05730218AA5A
:01192C002298
:0A1B10008F5B8D5C8B5D8A5E895F40
:101B1A00E4F563AB5DAA5EA95F85638275830012F3
:101B2A0015F6FB6026856067856168856269AD5C2C
:101B3A00AF5B12180D7408255BF55BD394784007E8
:0B1B4A00E4F55B055C055C056380C8EA
:011B5500226D
:041B5600AA07A9052C
:101B5A00E4F577121BFDE4FCEB75F040A424A6F52E
:101B6A0082E4340D121B9705770CBC10EBAF02E927
:101B7A0004FD121BFDE4FCEB75F040A424C6F582BB
:0C1B8A00E4340D121B9705770CBC10EB27
:011B9600222C
:0419B900AA07A905CB
:1019BD00E4F55A121BFDE4FC75F080EBA42426F52A
:1019CD0082E5F03408121B97055A0CBC10EAAF02E1
:1019DD00E904FD121BFDE4FC75F080EBA42446F533
:1019ED0082E5F03408121B97055A0CBC10EAAF02C1
:1019FD00E92402FD121BFDE4FC75F080EBA42466C6
:101A0D00F582E5F03408121B97055A0CBC10EAAFAD
:101A1D0002E92403FD121BFDE4FC75F080EBA42408
:101A2D0086F582E5F03408121B97055A0CBC10EAB6
:011A3D002286
:1016BE00D2927F647E00121C84C2927F647E0012DE
:1016CE001C84D292E4FD7FAE121BA8E4FF121BA86D
:1016DE007F10121BA87F40121BA87F81121BA87FB0
:1016EE00CF121BA87FA1121BA87FC8121BA87FA612
:1016FE00121BA87FA8121BA87F3F121BA87FD31214
:10170E001BA8E4FF121BA87FD5121BA87F80121BFB
:10171E00A87FD9121BA87FF1121BA87FDA121BA873
:10172E007F12121BA87FDB121BA87F40121BA87F03
:10173E0020121BA87F02121BA87F8D121BA87F14DC
:10174E00121BA87FA4121BA87FA6121BA87FAF1284
:10175E001BA87FAF121BA8121BD0E4FDFF021BFDBE
:101A3E00506C656173652073657420686F75723ABA
:101A4E0000506C6561736520736574206D696E75E9
:101A5E0074653A00506C656173652073657420730C
:101A6E0065636F6E643A00506C65617365207365D3
:101A7E007420796561723A00506C656173652073EC
:101A8E006574206D6F6E74683A00506C6561736595
:0A1A9E0020736574206461793A003A
:031C1D0001331080
:05000600D2A8D28822FF
:03000300021AA836
:101AA800C0E0C0F0C083C082C0D075D000C000C004
:101AB80001C002C003C004C005C006C00720950DC0
:101AC8007F0A7E00121C8420950375320120960D32
:101AD8007F0A7E00121C8420960375320220970D1F
:101AE8007F0A7E00121C84209703753203D007D02A
:101AF80006D005D004D003D002D001D000D0D0D079
:081B080082D083D0F0D0E0325E
:10176E00D28C755D00755E00755F477560007561A2
:10177E000075625275630075640075655675660076
:10178E007567007568347B007A00794112113CABA5
:10179E00347D017F141219B9AB357D017F251219E5
:1017AE00B97B0A7D017F341219B9AB367D017F44B6
:1017BE001219B9AB377D017F551219B975330CE586
:1017CE00382430FB7567007568007569337D027FBC
:1017DE006612180DE5392430FB75670075680075C3
:1017EE0069337D027F6C12180D756000756100758E
:0F17FE0062337B007A0079477D057F2F021B1035
:1014D400E4F55A7533107560007561007562337BED
:1014E400FF7A1A793EE4FD7F08121B10E53224FDD1
:1014F4006007047007055A8003121CACE55A6401A6
:101504007026F5607561007562337BFF7A1A794F36
:10151400FD7F08121B10E53224FD60070470DD0511
:101524005A80D9121CBF80D4E55A64027026F56033
:101534007561007562337BFF7A1A7962FD7F081248
:101544001B10E53224FD60070470DD055A80D912B2
:101554001CD280D4E55A64037026F5607561007569
:1015640062337BFF7A1A7975FD7F08121B10E5320E
:1015740024FD60070470DD055A80D9121CF380D461
:10158400E55A64047026F5607561007562337BFF6B
:101594007A1A7986FD7F08121B10E53224FD600754
:1015A4000470DD055A80D9121C9880D4E55A64056C
:1015B4007026F5607561007562337BFF7A1A79983D
:1015C400FD7F08121B10E53224FD60070470DD0561
:0815D4005A80D912137180D472
:0115DC0022EC
:101C6C001216BE121BD0121CE5E53260061470036E
:081C7C001214D412176E80F15E
:101C39007F017E007D707C00ED1D70011CED4C70F4
:0A1C4900F7EF1F70011EEF4E70EA66
:011C5300226E
:101C8400AB07AA06EB1BAE0270011A4E6005121CCC
:041C94003980F12280
:071CFC0000000000000022BF
:101C2000021A00000220001E021E000C021C0013FB
:081C30000222000A021807E27B
:0E1CE500758901758C4CE4F58AD2AFD2A92224
:03000B00020DE6FD
:100DE600C0E0C0F0C083C082C0D075D000C000C0D3
:0B0DF60002C003C004C005C006C00717
:100E0100758C4C758A00050FE50F7002050E641490
:100E1100450E6003021033F50EF50F051BE51B703F
:100E210002051A643C451A700CF51AF51B0521E5FB
:100E31002170020520E521643C4520700CF520F568
:100E410021051FE51F7002051EE51F6418451E7070
:100E51000CF51EF51F051DE51D7002051CE5226040
:100E61000302101EE52314B40C00400302101E906F
:100E71000E7E75F003A4C58325F0C58373020EA20F
:100E8100020FC6020EBD020F5F020ED8020F7A02D8
:100E91000EF3020F0E020F95020F29020FAF020F80
:100EA10044E51D6420451C600302101EF51C751DE0
:100EB100010523E5237053052202101EE51D642060
:100EC100451C600302101EF51C751D010523E52359
:100ED1007002052202101EE51D6420451C600302FC
:100EE100101EF51C751D010523E523700205220264
:100EF100101EE51D6420451C600302101EF51C75C3
:100F01001D010523E5237002052202101EE51D6463
:100F110020451C600302101EF51C751D010523E50B
:100F2100237002052202101EE51D6420451C60038A
:100F310002101EF51C751D010523E5237002052213
:100F410002101EE51D6420451C600302101EF51CE5
:100F5100751D010523E5237002052202101EE51D02
:100F6100641F451C600302101EF51C751D0105233D
:100F7100E5237002052202101EE51D641F451C6059
:100F81000302101EF51C751D010523E523700205E2
:100F91002202101EE51D641F451C600302101EF590
:100FA1001C751D010523E52370020522806FE51DD7
:100FB100641F451C7067F51C751D010523E5237031
:100FC1005C05228058E51924D0FBE5183407FAEBBB
:100FD1005403700EFC7D64AF03AE02121669ED4C32
:100FE100700F7C017D90AF03AE02121669ED4C705B
:100FF10017E51D641E451C7024F51C751D01052394
:10100100E523701905228015E51D641D451C700D31
:10101100F51C751D010523E52370020522E52364F6
:101021000D4522700DF5227523010519E519700290
:101031000518AE1AAF1B7C007D0A1216698E248F2B
:1010410025AE1AAF1B7C007D0A1216698C2A8D2BE6
:10105100AE20AF217C007D0A1216698E308F31AE31
:1010610020AF217C007D0A1216698C088D09AE1E05
:10107100AF1F7C007D0A1216698E288F29AE1EAF24
:101081001F7C007D0A1216698C2E8D2FAE1CAF1DA0
:101091007C007D0A1216698E268F27AE1CAF1D7C3F
:1010A100007D0A1216698C2C8D2DAE22AF237C0097
:1010B1007D0A1216698E0A8F0BAE22AF237C007D4A
:1010C1000A1216698C0C8D0DAE18AF197C037DE8E0
:1010D1001216698E108F11AE18AF197C037DE812BC
:1010E1001669AA04AB057C007D64AF03AE0212163B
:1010F100698E128F137C007D64AF03AE02121669F4
:10110100AA04AB057C007D0AAF03AE021216698EFC
:10111100148F157C007D0AAF03AE021216698C167E
:021121008D1728
:10112300D007D006D005D004D003D002D000D0D051
:09113300D082D083D0F0D0E0326C
:10113C008B5A8A5B895CE5292430121623E52F240F
:10114C0030AB5AAA5BA95C900001121635900002D4
:10115C00743A121635E5312430900003121635E539
:10116C00092430900004121635E5112430AB5DAA29
:10117C005EA95F121623E5132430AB5DAA5EA95F4E
:10118C00900001121635E515243090000212163528
:10119C00E5172430900003121635900004742F12BA
:1011AC001635E50B2430900005121635E50D24306C
:1011BC00900006121635900007742F121635E5278D
:1011CC002430900008121635E52D243090000912B9
:1011DC001635AB5AAA5BA95C9000011215F6FF12EA
:1011EC0015DD75F00AA42F24F0AB60AA61A9621278
:1011FC001623AB5AAA5BA95C9000031215F675F086
:10120C000AA4FF9000041215F62F24F0AB60AA611B
:10121C00A962900001121635E52575F00AA4252B5C
:10122C00900002121635AB5DAA5EA95F9000011208
:10123C0015F675F064A4FF1215DD75F0E8A42FFF08
:10124C009000021215F675F00AA42FFF90000312FD
:10125C0015F62FAB63AA64A965121623AB5DAA5EC3
:10126C00A95F9000051215F675F00AA4FF90000610
:10127C001215F62FAB63AA64A965900001121635FE
:10128C00AB5DAA5EA95F9000081215F675F00AA472
:10129C00FF9000091215F62FAB63AA64A9659000A4
:1012AC0001121635AB66AA67A968E529121623AB9D
:1012BC0066AA67A968900001E52F121635AB66AADD
:1012CC0067A968900002E531121635AB66AA67A9CA
:1012DC0068900003E509121635AB66AA67A96890F9
:1012EC000004E525121635AB66AA67A968900005BF
:1012FC00E52B121635AB66AA67A968900006E511B6
:10130C00121635AB66AA67A968900007E51312168A
:10131C0035AB66AA67A968900008E515121635ABBF
:10132C0066AA67A968900009E517121635AB66AA7C
:10133C0067A96890000AE50B121635AB66AA67A977
:10134C006890000BE50D121635AB66AA67A968907C
:10135C00000CE527121635AB66AA67A96890000D3C
:05136C00E52D0216351D
:101CAC00051FE51F7002051E6418451E7004F51E05
:031CBC00F51F22EF
:101CBF000521E52170020520643C45207004F520C4
:031CCF00F52122DA
:101CD200051BE51B7002051A643C451A7004F51ACF
:031CE200F51B22CD
:091CF3000519E51970020518221B
:101C98000523E52370020522640D45227005F5220F
:041CA800752301227D
:10137100E52260030214D3E52314B40C00400302F8
:1013810014D390139175F003A4C58325F0C583731D
:101391000213B50214840213C90214410213DD02BF
:1013A10014540213F10214050214640214190214F4
:1013B1007402142D051DE51D7002051C6420451CD9
:1013C10060030214D30214CE051DE51D7002051C35
:1013D1006420451C60030214D30214CE051DE51DD3
:1013E1007002051C6420451C60030214D30214CE54
:1013F100051DE51D7002051C6420451C60030214D7
:10140100D30214CE051DE51D7002051C6420451C88
:1014110060030214D30214CE051DE51D7002051CE4
:101421006420451C60030214D30214CE051DE51D82
:101431007002051C6420451C60030214D30214CE03
:10144100051DE51D7002051C641F451C6003021487
:10145100D3807A051DE51D7002051C641F451C70B3
:1014610071806A051DE51D7002051C641F451C7015
:1014710061805A051DE51D7002051C641F451C7025
:1014810051804AE51924D0FFE5183407AB07FAEB80
:101491005403700CFC7D64AE02121669ED4C700FA2
:1014A100AE02AF037C017D90121669ED4C70100500
:1014B1001DE51D7002051C641E451C7015800E057E
:1014C1001DE51D7002051C641D451C7005F51C758C
:0214D1001D01FB
:0114D30022F6
:10193900021C6CE493A3F8E493A34003F68001F23C
:1019490008DFF48029E493A3F85407240CC8C333AF
:10195900C4540F4420C8834004F456800146F6DF7E
:10196900E4800B0102040810204080901C1DE47ED5
:10197900019360BCA3FF543F30E509541FFEE49373
:10198900A360010ECF54C025E060A840B8E493A33A
:10199900FAE493A3F8E493A3C8C582C8CAC583CA65
:1019A900F0A3C8C582C8CAC583CADFE9DEE780BE1D
:011C380000AB
:1015DD00BB010689828A83E0225002E722BBFE020C
:0915ED00E32289828A83E493223F
:1015F600BB010CE58229F582E5833AF583E02250AA
:1016060006E92582F8E622BBFE06E92582F8E222F3
:0D161600E58229F582E5833AF583E493220D
:10162300BB010689828A83F0225002F722BBFE01A6
:02163300F322A0
:10163500F8BB010DE58229F582E5833AF583E8F0EB
:10164500225006E92582C8F622BBFE05E92582C897
:02165500F2227F
:10165700EF8DF0A4A8F0CF8CF0A428CE8DF0A42EA7
:02166700FE2261
:10166900BC000BBE0029EF8DF084FFADF022E4CC65
:10167900F875F008EF2FFFEE33FEEC33FCEE9DEC2E
:10168900984005FCEE9DFE0FD5F0E9E4CEFD22ED74
:10169900F8F5F0EE8420D21CFEADF075F008EF2FBE
:1016A900FFED33FD4007985006D5F0F222C398FDAF
:0516B9000FD5F0EA224C
:00000001FF
