:030000000216C421
:0C16C400787FE4F6D8FD75817C02170BDE
:06181B008B778A788979C1
:10182100E4F57AAB77AA78A979857A827583001273
:10183100138A701A7F0AFE121983AB77AA78A979E5
:10184100857A8275830012138A7006AF7A227F042B
:0A18510022057AE57AC3940340C92A
:01185B00226A
:10000E000000000000000000002F000000000700AC
:10001E00070000147F147F1400242A7F2A12006226
:10002E0064081323003649552250000005030000D2
:10003E0000001C224100000041221C000014083E5A
:10004E0008140008083E0808000000A06000000820
:10005E000808080800006060000000201008040274
:10006E00003E5149453E0000427F40000042615132
:10007E004946002141454B31001814127F100027CC
:10008E0045454539003C4A4949300001710905038F
:10009E0000364949493600064949291E00003636C0
:1000AE000000000056360000000814224100001423
:1000BE001414141400004122140800020151090600
:1000CE0000324959513E007C1211127C007F494981
:1000DE004936003E41414122007F4141221C007FB2
:1000EE0049494941007F09090901003E4149497AC0
:1000FE00007F0808087F0000417F4100002040413A
:10010E003F01007F08142241007F40404040007FA5
:10011E00020C027F007F0408107F003E4141413EE9
:10012E00007F09090906003E4151215E007F091931
:10013E0029460046494949310001017F0101003F2E
:10014E004040403F001F2040201F003F4038403FAE
:10015E000063140814630007087008070061514912
:10016E00454300007F41410000552A552A550000A5
:10017E0041417F0000040201020400404040404023
:10018E00000001020400002054545478007F4844BB
:10019E00443800384444442000384444487F0038F2
:1001AE005454541800087E0901020018A4A4A47C1B
:1001BE00007F080404780000447D400000408084E5
:1001CE007D00007F102844000000417F4000007C2D
:1001DE0004180478007C0804047800384444443839
:1001EE0000FC242424180018242418FC007C080485
:1001FE00040800485454542000043F444020003C5E
:10020E004040207C001C2040201C003C4030403CE4
:10021E00004428102844001CA0A0A07C0044645474
:10022E004C441414141414140000000000000000B8
:10023E000000000000000000000000F800000000B8
:10024E00000000333000000000100C06100C0600F9
:10025E00000000000000000040C07840C078400060
:10026E00043F04043F040400007088FC08300000C2
:10027E00001820FF211E0000F008F000E01800001A
:10028E0000211C031E211E0000F0088870000000D3
:10029E001E2123241927211010160E000000000025
:1002AE000000000000000000000000E01804020042
:1002BE00000000071820400000020418E0000000B3
:1002CE000040201807000000404080F080404000B1
:1002DE000202010F01020200000000F00000000007
:1002EE000101011F010101000000000000000000DB
:1002FE0080B0700000000000000000000000000050
:10030E0000010101010101010000000000000000D8
:10031E000030300000000000000000008060180473
:10032E00006018060100000000E010080810E00050
:10033E00000F102020100F00001010F80000000019
:10034E000020203F20200000007008080888700060
:10035E0000302824222130000030088888483000E0
:10036E000018202020110E000000C02010F8000000
:10037E0000070424243F240000F808888808080099
:10038E000019212020110E0000E0108888180000AE
:10039E00000F112020110E0000380808C838080080
:1003AE000000003F00000000007088080888700000
:1003BE00001C222121221C0000E010080810E00081
:1003CE000000312222110F00000000C0C00000000A
:1003DE00000000303000000000000080000000002F
:1003EE000000806000000000000080402010080027
:1003FE0000010204081020004040404040404000F0
:10040E0004040404040404000008102040800000CA
:10041E000020100804020100007048080808F000CF
:10042E000000003036010000C030C828E810E0009F
:10043E000718272423140B000000C038E00000002A
:10044E00203C23020227382008F888888870000094
:10045E00203F202020110E00C03008080808380068
:10046E00071820202010080008F808080810E000DF
:10047E00203F202020100F0008F88888E808100080
:10048E00203F20202320180008F88888E808100054
:10049E00203F200003000000C0300808083800008C
:1004AE0007182020221E020008F808000008F8088D
:1004BE00203F210101213F20000808F80808000014
:1004CE000020203F2020000000000808F808080047
:1004DE00C08080807F00000008F888C028180800BF
:1004EE00203F20012638200008F8080000000000F8
:1004FE00203F20202020300008F8F800F8F80800EF
:10050E00203F003F003F200008F830C00008F808E8
:10051E00203F200007183F00E01008080810E000F8
:10052E000F10202020100F0008F808080808F0000F
:10053E00203F210101010000E01008080810E00032
:10054E000F18242438504F0008F8888888887000C7
:10055E00203F2000030C3020007088080808380067
:10056E000038202121221C00180808F8080818005D
:10057E000000203F2000000008F808000008F808DE
:10058E00001F202020201F000878880000C838088F
:10059E00000007380E010000F80800F80008F80007
:1005AE00033C0700073C03000818688080681808A1
:1005BE0020302C03032C30200838C800C83808001F
:1005CE000000203F2000000010080808C83808006E
:1005DE002038262120201800000000FE0202020012
:1005EE000000007F40404000000C30C000000000C2
:1005FE00000000010638C00000020202FE000000EA
:10060E00004040407F00000000000402020204008F
:10061E0000000000000000000000000000000000CC
:10062E0080808080808080800002020400000000B4
:10063E0000000000000000000000808080800000AC
:10064E000019242222223F2008F80080800000009A
:10065E00003F112020110E0000000080808000005D
:10066E00000E112020201100000000808088F8006C
:10067E00000E112020103F2000008080808000009E
:10068E00001F222222221300008080F08888881802
:10069E000020203F2020000000008080808080000D
:1006AE00006B94949493600008F8008080800000A2
:1006BE00203F210000203F2000809898000000007D
:1006CE000020203F202000000000008098980000AD
:1006DE0000C08080807F000008F8000080808000CD
:1006EE00203F24022D302000000808F800000000F2
:1006FE000020203F202000008080808080808000AD
:10070E00203F20003F20003F80800080808000003E
:10071E00203F210000203F200000808080800000CC
:10072E00001F202020201F008080008080000000FD
:10073E0080FFA12020110E0000000080808080002C
:10074E00000E112020A0FF8080808000808080001D
:10075E0020203F212000010000008080808080004A
:10076E000033242424241900008080E080800000BF
:10077E000000001F2020000080800000008080000C
:10078E00001F202020103F2080808000008080806D
:10079E0000010E30080601008080008000808080FD
:1007AE000F300C030C300F00008080008080800022
:1007BE000020312E0E31200080808000008080804D
:1007CE0080818E70180601000080808080808000FD
:1007DE000021302C2221300000000000807C02021B
:1007EE0000000000003F404000000000FF0000003D
:1007FE0000000000FF0000000002027C80000000EC
:10080E000040403F00000000000601010202040407
:10081E0000000000000000000000000080C0C0C00A
:10082E00C0C0C080000000000000000000000000FA
:10083E00000000000000000000F0FEFF07010000B5
:10084E000000030FFFFC000000000000000000008D
:10085E000000000000000000001FFFFFC0000000AD
:10086E00000000E0FF7F000000000000000000001C
:10087E000000000000000000000000030307060E49
:10088E000E0607030100000000000000000000003B
:10089E00000000000000000000000000000000C08A
:1008AE00C0C00000000000000000000000000000BA
:1008BE0000000000000000000000001C0C0603FFFA
:1008CE00FFFF00000000000000000000000000001C
:1008DE00000000000000000000000000000000FF0B
:1008EE00FFFF0000000000000000000000000000FC
:1008FE0000000000000000000000000000000007E3
:10090E0007070000000000000000000000000000CB
:10091E00000000000000000000000080C0C0C0C049
:10092E00C0C0C08080000000000000000000000079
:10093E000000000000000000000407070301000093
:10094E000000C1FFFF1E00000000000000000000BC
:10095E00000000000000000000000080C0E07038C1
:10096E001E0F030100000000000000000000000048
:10097E000000000000000000000007070707060641
:10098E000606060606060000000000000000000035
:10099E0000000000000000000000000080C0C0C089
:1009AE00C0C0C080800000000000000000000000F9
:1009BE0000000000000000000000060F0301808010
:1009CE0080C0C17F7F1E00000000000000000000FC
:1009DE0000000000000000000040C0E080000101A7
:1009EE00010303DFFEFC0000000000000000000019
:1009FE000000000000000000000001030707060EC3
:100A0E000E060703030000000000000000000000B7
:100A1E0000000000000000000000000000000000C8
:100A2E000080C0C0000000000000000000000000B8
:100A3E00000000000000000000000000C0E0703C5C
:100A4E001E07FFFF00000000000000000000000075
:100A5E00000000000000000070787E7F73717070DF
:100A6E007070FFFF7070700000000000000000004A
:100A7E000000000000000000000000000000000068
:100A8E00000007070000000000000000000000004A
:100A9E000000000000000000000000C0C0C0C0C088
:100AAE00C0C0C0C0C0000000000000000000000078
:100ABE0000000000000000000080F8FFCF606060C2
:100ACE0060E0C0C0800000000000000000000000D8
:100ADE00000000000000000000C1E18100000000E5
:100AEE00000001E7FFFE0000000000000000000013
:100AFE00000000000000000000010307060E0E0EAD
:100B0E000E070703010000000000000000000000B7
:100B1E0000000000000000000000000000000000C7
:100B2E00C0C0C00000000000000000000000000077
:100B3E000000000000000000000000C0F0F8FECF32
:100B4E00C7C1C0C08000000000000000000000000F
:100B5E000000000000000000007CFFFF8301000089
:100B6E0000000001FFFFFE0000000000000000007A
:100B7E000000000000000000000001030707060E41
:100B8E000E0E06070301000000000000000000002A
:100B9E00000000000000000000C0C0C0C0C0C0C007
:100BAE00C0C0C0C0C0C0C0000000000000000000F7
:100BBE000000000000000000000000000000000027
:100BCE0080E0F83E0F03010000000000000000006E
:100BDE000000000000000000000000000080F0FE99
:100BEE003F070000000000000000000000000000B1
:100BFE0000000000000000000000000004070701D4
:100C0E0000000000000000000000000000000000D6
:100C1E00000000000000000000000080C0C0C0C046
:100C2E00C0C0C080000000000000000000000000F6
:100C3E00000000000000000000007F7FE1C0808007
:100C4E0080C0E17F7F1E0000000000000000000059
:100C5E00000000000000000000FCFECF07030101B1
:100C6E000103038FFEFC00000000000000000000E6
:100C7E0000000000000000000001030707060E0E32
:100C8E000E06070703010000000000000000000030
:100C9E00000000000000000000000080C0C0C0C0C6
:100CAE00C0C0C08000000000000000000000000076
:100CBE00000000000000000000FEFF8701010000A0
:100CCE00000183FFFF7E0000000000000000000016
:100CDE00000000000000000000010307070686E682
:100CEE00FE7F1F0703000000000000000000000050
:100CFE00000000000000000000000000080E0F03BE
:100D0E0001000000000000000000000000000000D4
:100D1E0000000000000000000000000000000000C5
:100D2E0000000000000000000000000000000000B5
:100D3E000000000000000000000000000000E0E0E5
:100D4E00E0000000000000000000000000000000B5
:100D5E000000000000000000000000000000000085
:100D6E000000000000000000000000000000000075
:100D7E000000000000000000000000000000060659
:100D8E00060000000000000000000000000000004F
:100D9E00000000000000000000001010901C1090D9
:100DAE00B09C9488080000000000000000000000C5
:100DBE000000000000000000000021320800001FAB
:100DCE0020244720202030000000000000000000FA
:080DDE0000000000000000000D
:10189D00F583E5822CF582E43583F583E493FF7DB2
:0118AD000139
:1018AE00ED6004D2938002C293C294E4FEC290EF24
:1018BE0030E704D2918002C291D290EF25E0FF0E64
:0718CE00BE08EAD294D29398
:0118D50022F0
:0618FD00E56604FDAF6585
:10190300AC07ED24B0FFE4FD1218AEEC54F0C45460
:101913000F4410FF1218AEEC540F4401FF0218AE2F
:1018D600E4FCEC24B0FFE4FD1218AEE4FF1218AEEF
:1018E6007F101218AEE4FB7D01E4FF1218AE0BBBAD
:0618F60080F50CBC08DCCB
:0118FC0022C9
:0415A4008F658D665C
:1015A800E4F56BFCEB24E0F56BE565D3947F40072D
:1015B800E4F56505660566AB68AA69A96A12137140
:1015C8006410704DAD66AF65121903E4FC75F01038
:1015D800E56BA42CF582E435F0F583E5822436F535
:1015E80082E58334021218A70CBC08E11218FDE446
:1015F800FC75F010E56BA42CF582E435F0F583E575
:1016080082243EF582E58334021218A70CBC08E157
:10161800221218FDE4FC75F006E56BA4240EF58291
:0B162800E5F0340012189D0CBC06EB2E
:011633002294
:041957008F7BA905D4
:10195B007F017E00AD0119ED6009AD7B7C00121398
:03196B00EB80F11D
:01196E002256
:081634008F6C8D6D8A6E8B6FC7
:10163C00E4F576F574E574C39570507BC3E570954D
:10164C007414FD7F0A121957AC6EAD6FCFCDCFCE8F
:10165C00CCCE1213FD7C007D0A1213FD8D75E57640
:10166C00702DE57014FFE574C39F5023E575701C55
:10167C00AB71AA72A973121371C3138574F0A425EC
:10168C006CFF8B688A69896A7B208021757601AB37
:10169C0071AA72A973121371C3138574F0A4256C0B
:1016AC00FFE5752430FB8571688A69896AAD6D1216
:0716BC0015A405740216419C
:0116C3002204
:0A17D5008F5C8D5D8B5E8A5F89607A
:1017DF00E4F564AB5EAA5FA960856482758300122D
:1017EF00138AFB602685616885626985636AAD5DD2
:1017FF00AF5C1215A47408255CF55CD39478400790
:0B180F00E4F55C055D055D056480C824
:01181A0022AB
:04185C00AA07A90529
:10186000E4F57C121903E4FCEB75F040A424A6F522
:1018700082E4340D12189D057C0CBC10EBAF02E91C
:1018800004FD121903E4FCEB75F040A424C6F582B4
:0C189000E4340D12189D057C0CBC10EB1C
:01189C002229
:04175000AA07A90536
:10175400E4F55C121903E4FC75F080EBA42426F58F
:1017640082E5F0340812189D055C0CBC10EAAF0247
:10177400E904FD121903E4FC75F080EBA42446F59A
:1017840082E5F0340812189D055C0CBC10EAAF0227
:10179400E92402FD121903E4FC75F080EBA424662D
:1017A400F582E5F0340812189D055C0CBC10EAAF14
:1017B40002E92403FD121903E4FC75F080EBA42470
:1017C40086F582E5F0340812189D055C0CBC10EA1D
:0117D40022F2
:10145200D2927F647E00121983C2927F647E001250
:101462001983D292E4FD7FAE1218AEE4FF1218AED9
:101472007F101218AE7F401218AE7F811218AE7F15
:10148200CF1218AE7FA11218AE7FC81218AE7FA677
:101492001218AE7FA81218AE7F3F1218AE7FD31279
:1014A20018AEE4FF1218AE7FD51218AE7F80121864
:1014B200AE7FD91218AE7FF11218AE7FDA1218AED3
:1014C2007F121218AE7FDB1218AE7F401218AE7F69
:1014D200201218AE7F021218AE7F8D1218AE7F1442
:1014E2001218AE7FA41218AE7FA61218AE7FAF12EA
:1014F20018AE7FAF1218AE1218D6E4FDFF02190320
:10150200121371F508755F0075600075611F7562D1
:101512000075630075642A75650075660075672E2F
:10152200756800756900756A0C7B007A007919127A
:10153200113CAB0C7D017F14121750AB0D7D017F66
:10154200251217507B0A7D017F34121750AB0E7D96
:10155200017F44121750AB0F7D017F55121750E5E2
:10156200102430FB756800756900756A087D027F7A
:10157200661215A4E5112430FB75680075690075C3
:101582006A087D027F6C1215A475080C75610075DE
:1015920062007563087B007A00791F7D057F2F0248
:0215A20017D55B
:10196F001214521218D61219977B007A00790812A6
:04197F00150280F5D8
:101923007F017E007D707C00ED1D70011CED4C700D
:0A193300F7EF1F70011EEF4E70EA7F
:01193D002287
:10198300AB07AA06EB1BAE0270011A4E60051219D3
:041993002380F1229A
:0700030000000000000022D4
:10193E0002440000024A001E0248000C0246001338
:08194E00024C000A024207E20C
:10199700758901758C4CE4F58AD2AFD2A9D28C2215
:03000B00020DE6FD
:100DE600C0E0C0F0C083C082C0D075D000C000C0D3
:0B0DF60002C003C004C005C006C00717
:100E0100758C4C758A000539E53970020538641412
:100E110045386003021033F538F5390545E545706D
:100E2100020544643C4544700CF544F545054BE529
:100E31004B7002054AE54B643C454A700CF54AF596
:100E41004B0549E54970020548E549641845487074
:100E51000CF548F5490547E54770020546E54C6044
:100E61000302101EE54D14B40C00400302101E9045
:100E71000E7E75F003A4C58325F0C58373020EA20F
:100E8100020FC6020EBD020F5F020ED8020F7A02D8
:100E91000EF3020F0E020F95020F29020FAF020F80
:100EA10044E54764204546600302101EF546754738
:100EB10001054DE54D7053054C02101EE5476420B8
:100EC1004546600302101EF546754701054DE54D87
:100ED1007002054C02101EE547642045466003027E
:100EE100101EF546754701054DE54D7002054C0292
:100EF100101EE54764204546600302101EF5467545
:100F01004701054DE54D7002054C02101EE5476491
:100F1100204546600302101EF546754701054DE563
:100F21004D7002054C02101EE547642045466003E2
:100F310002101EF546754701054DE54D7002054C41
:100F410002101EE54764204546600302101EF54667
:100F5100754701054DE54D7002054C02101EE54730
:100F6100641F4546600302101EF546754701054D95
:100F7100E54D7002054C02101EE547641F454660B1
:100F81000302101EF546754701054DE54D7002053A
:100F91004C02101EE547641F4546600302101EF512
:100FA10046754701054DE54D7002054C806FE547DB
:100FB100641F45467067F546754701054DE54D705F
:100FC1005C054C8058E54324D0FBE5423407FAEB3D
:100FD1005403700EFC7D64AF03AE021213FDED4CA1
:100FE100700F7C017D90AF03AE021213FDED4C70CA
:100FF10017E547641E45467024F546754701054DC2
:10100100E54D7019054C8015E547641D4546700D89
:10101100F546754701054DE54D7002054CE54D64FA
:101021000D454C700DF54C754D010543E5437002BE
:101031000542AE44AF457C007D0A1213FD8E4E8FF2
:101041004FAE44AF457C007D0A1213FD8C548D5583
:10105100AE4AAF4B7C007D0A1213FD8E5A8F5BAEF8
:101061004AAF4B7C007D0A1213FD8C328D33AE48A2
:10107100AF497C007D0A1213FD8E528F53AE48AFEB
:10108100497C007D0A1213FD8C588D59AE46AF473D
:101091007C007D0A1213FD8E508F51AE46AF477C06
:1010A100007D0A1213FD8C568D57AE4CAF4D7C005E
:1010B1007D0A1213FD8E348F35AE4CAF4D7C007D11
:1010C1000A1213FD8C368D37AE42AF437C037DE8A7
:1010D1001213FD8E3A8F3BAE42AF437C037DE81283
:1010E10013FDAA04AB057C007D64AF03AE021213AD
:1010F100FD8E3C8F3D7C007D64AF03AE021213FD7B
:10110100AA04AB057C007D0AAF03AE021213FD8E6B
:101111003E8F3F7C007D0AAF03AE021213FD8C406F
:021121008D41FE
:10112300D007D006D005D004D003D002D000D0D051
:09113300D082D083D0F0D0E0326C
:10113C008B5C8A5D895EE55324301213B7E5592424
:10114C0030AB5CAA5DA95E9000011213C99000023D
:10115C00743A1213C9E55B24309000031213C9E5ED
:10116C003324309000041213C9E53B2430AB5FAA42
:10117C0060A9611213B7E53D2430AB5FAA60A96189
:10118C009000011213C9E53F24309000021213C9DC
:10119C00E54124309000031213C9900004742F12FF
:1011AC0013C9E53524309000051213C9E5372430F6
:1011BC009000061213C9900007742F1213C9E55141
:1011CC0024309000081213C9E557243090000912FE
:1011DC0013C9AB5CAA5DA95E90000112138AFF12C1
:1011EC00137175F00AA42F24F0AB62AA63A96412E0
:1011FC0013B7AB5CAA5DA95E90000312138A75F05D
:10120C000AA4FF90000412138A2F24F0AB62AA6385
:10121C00A9649000011213C9E54F75F00AA4255575
:10122C009000021213C9AB5FAA60A9619000011271
:10123C00138A75F064A4FF12137175F0E8A42FFFE4
:10124C0090000212138A75F00AA42FFF900003126B
:10125C00138A2FAB65AA66A9671213B7AB5FAA6096
:10126C00A96190000512138A75F00AA4FF9000067C
:10127C0012138A2FAB65AA66A9679000011213C9D5
:10128C00AB5FAA60A96190000812138A75F00AA4DA
:10129C00FF90000912138A2FAB65AA66A96790000C
:1012AC00011213C9AB68AA69A96AE5531213B7AB4B
:1012BC0068AA69A96A900001E5591213C9AB68AA1A
:1012CC0069A96A900002E55B1213C9AB68AA69A907
:1012DC006A900003E5331213C9AB68AA69A96A9036
:1012EC000004E54F1213C9AB68AA69A96A900005FE
:1012FC00E5551213C9AB68AA69A96A900006E53BCB
:10130C001213C9AB68AA69A96A900007E53D1213CC
:10131C00C9AB68AA69A96A900008E53F1213C9AB6A
:10132C0068AA69A96A900009E5411213C9AB68AAB9
:10133C0069A96A90000AE5351213C9AB68AA69A9B4
:10134C006A90000BE5371213C9AB68AA69A96A90B9
:10135C00000CE5511213C9AB68AA69A96A90000D7B
:05136C00E5570213C962
:1016D00002196FE493A3F8E493A34003F68001F2A8
:1016E00008DFF48029E493A3F85407240CC8C3331B
:1016F000C4540F4420C8834004F456800146F6DFEA
:10170000E4800B010204081020408090193EE47E22
:10171000019360BCA3FF543F30E509541FFEE493DE
:10172000A360010ECF54C025E060A840B8E493A3A5
:10173000FAE493A3F8E493A3C8C582C8CAC583CAD0
:10174000F0A3C8C582C8CAC583CADFE9DEE780BE88
:011956000090
:10137100BB010689828A83E0225002E722BBFE027A
:09138100E32289828A83E49322AD
:10138A00BB010CE58229F582E5833AF583E0225018
:10139A0006E92582F8E622BBFE06E92582F8E22262
:0D13AA00E58229F582E5833AF583E493227C
:1013B700BB010689828A83F0225002F722BBFE0115
:0213C700F3220F
:1013C900F8BB010DE58229F582E5833AF583E8F05A
:1013D900225006E92582C8F622BBFE05E92582C806
:0213E900F222EE
:1013EB00EF8DF0A4A8F0CF8CF0A428CE8DF0A42E16
:0213FB00FE22D0
:1013FD00BC000BBE0029EF8DF084FFADF022E4CCD4
:10140D00F875F008EF2FFFEE33FEEC33FCEE9DEC9C
:10141D00984005FCEE9DFE0FD5F0E9E4CEFD22EDE2
:10142D00F8F5F0EE8420D21CFEADF075F008EF2F2C
:10143D00FFED33FD4007985006D5F0F222C398FD1D
:05144D000FD5F0EA22BA
:00000001FF
